:1000000000000220C9520000F152000095180000C3
:10001000F5520000F7520000F95200000000000005
:10002000000000000000000000000000FB52000083
:10003000FD52000000000000FF52000001530000CC
:10004000793B0000035300004D310000693400008B
:100050000353000003530000A52F0000F1310000FE
:100060009D330000AD330000035300000353000034
:100070000353000003530000035300000353000028
:1000800003530000811300000353000003530000DA
:100090001D1400000353000003530000035300002D
:1000A0000353000003530000035300000D0F000032
:1000B000A5500000035300000000000000000000F5
:1000C00003530000035300000353000003530000D8
:1000D00003530000035300000353000003530000C8
:1000E00003530000000000000000000000000000BA
:1000F0000000000003530000000000000353000054
:1001000000000000000000000000000000000000EF
:1001100000000000000000000000000000000000DF
:1001200000000000000000000000000000000000CF
:1001300000000000000000000000000000000000BF
:1001400000000000000000000000000000000000AF
:10015000000000000000000000000000000000009F
:10016000000000000000000000000000000000008F
:10017000000000000000000000000000000000007F
:10018000000000000000000000000000000000006F
:10019000000000000000000000000000000000005F
:1001A000000000000000000000000000000000004F
:1001B000000000000000000000000000000000003F
:1001C000000000000000000000000000000000002F
:1001D000000000000000000000000000000000001F
:1001E000000000000000000000000000000000000F
:1001F00000000000000000000000000000000000FF
:1002000010B5054C237833B9044B13B10448AFF350
:1002100000800123237010BD740C0020000000003A
:100220008001010008B5034B1BB103490348AFF33C
:10023000008008BD00000000780C00208001010053
:10024000A3F5803A704700BF174B002B08BF134B34
:100250009D46FFF7F5FF00218B460F461348144AD1
:10026000121A05F01BFC0E4B002B00D098470D4BCB
:10027000002B00D098470020002104000D000D48FD
:10028000002802D00C4809F0D1FA05F04FF8200000
:10029000290000F051FD05F039F800BF000008000A
:1002A000000000000000000000000220740C00208C
:1002B000481600202D980000F1AA000010B5036830
:1002C000292B044604D9074940F2CD1001F07EFBEA
:1002D00023681F2B83BF03F01F03034823604FF0E5
:1002E000A04010BD44E800000003005007B5019095
:1002F00001A8FFF7E3FF019A01239340C0F80C35F2
:1003000003B05DF804FB07B5019001A8FFF7D6FF25
:10031000019A01239340C0F8083503B05DF804FB4F
:1003200009B9FFF7E3BFFFF7EEBF000038B52E4C69
:100330002378042B07D8DFE803F0033B3D3F41005F
:100340001320FFF7D3FF294D2378E95CC94301F05F
:1003500001011C20FFF7E4FF2378E95C81F0020132
:10036000C1F340010B20FFF7DBFF2378E95C81F04C
:100370000401C1F380011F20FFF7D2FF2378E95C5D
:1003800081F00801C1F3C0012520FFF7C9FF2378E0
:10039000E95C81F01001C1F300111E20FFF7C0FFDE
:1003A0002378042B0FD8DFE803F00B16181A1C0073
:1003B0001520C6E71620C4E70F20C2E71820C0E7C3
:1003C0001520FFF7A0FF23780133DBB2042B88BF91
:1003D0000023237038BD1620F3E70F20F1E7182023
:1003E000EFE71320EDE700BF910C0020930C0020F5
:1003F00007B5019001A8FFF761FF019A012393401F
:10040000C0F8183503B05DF804FB000000000000E0
:1004100070B5421E55EC104B1548164E002312F8CD
:10042000011F09B1322B16D1134ADBB21370134AE4
:100430001370134B00221A7020460BA3D3E900233C
:1004400029460DF02FFD0EF005F80E4900F09AFD3B
:100450000D4B186070BD00F8011B117806F8011BE8
:100460000133DCE7AFF300800000000080841E4110
:100470009C150020CE150020920C0020990C002025
:10048000900C0020CD0400009C0C002006490023A5
:10049000C25C0AB1322B02D1044A1370704701F8D2
:1004A000012B0133F4E700BFCE150020990C00208A
:1004B000054B02781A7042785A7082789A70C27826
:1004C000DA7002791A717047930C002038B5164C17
:1004D000164D23781649FBB90B78E85C154B00EBF9
:1004E00080001844FFF7E4FF0B7801330B7023788A
:1004F000087883F0010323700F4B1A7882421A4662
:1005000001D92B5C3BB900230C48084C0B7010F848
:10051000011B29B9137038BD0948FFF7C9FFE6E789
:1005200004F8011B0133F2E7980C00209C15002011
:10053000900C002000000020920C0020CE1500201E
:10054000A000002008B51520FFF752FF1620FFF786
:100550004FFF0F20FFF74CFF1820FFF749FF132034
:10056000FFF746FF1520FFF7C1FE1620FFF7BEFE7E
:100570000F20FFF7BBFE1820FFF7B8FE1320FFF790
:10058000B5FE1C20FFF734FF0B20FFF731FF1F20C3
:10059000FFF72EFF2520FFF72BFF1E20FFF728FF78
:1005A0001C20FFF7A3FE0B20FFF7A0FE1F20FFF784
:1005B0009DFE2520FFF79AFE1E20FFF797FEBDE85F
:1005C00008400249202000F0DDBC00BF2D030000E0
:1005D00000B58BB00DF10F030693012398408DF801
:1005E0001D0018438DF80F108DF8250000210C48D0
:1005F00000910DF117028DF81C308DF81E30089215
:100600008DF8243006AA022300688DF817108DF8A3
:10061000261004F009FB9DF817000BB05DF804FBF1
:10062000A00C00207FB5400041EA02220DF10E032C
:1006300000218DF815000948049300910223ADF8BC
:100640000E208DF8143004AA012300688DF81610CE
:1006500004F0EAFA07B05DF804FB00BFA00C00202C
:10066000374B70B58022186024211920354DFFF7D3
:10067000D9FF642445F001054FF47A40A847013CB6
:10068000FAD1802223211920FFF7CCFF77222021E5
:100690001920FFF7C7FF0F211920FFF799FF332813
:1006A000014629D1284805F055FA402260211E2034
:1006B000FFF7B8FF4FF496744FF47A40A847013C17
:1006C000FAD1102262211E20FFF7ACFF0C2260211C
:1006D0001E20FFF7A7FF4F211E20FFF779FF4028BC
:1006E00001461BD1194805F035FABDE87040C0221B
:1006F0001F211920FFF796BF1548164E05F02AFA5C
:10070000E1B21920FFF764FF024618B121463046D6
:1007100005F020FA0134702CF2D1C6E70E480D4DD9
:1007200005F018FAE1B21E20FFF752FF024618B199
:100730002146284605F00EFA01346F2CF2D1D4E799
:10074000A00C002040E9000087E80000E7E8000076
:10075000A5E80000D3E8000004E9000010B50C2172
:100760001920FFF735FF0D2104461920FFF730FF50
:1007700004EB002000B207EE900A9FED067A064BCC
:10078000F8EEE77AB3EE090AA7EE870A83ED000ACE
:1007900010BD00BF0000803B0016002000000000DC
:1007A0002DE9F047282188B01920FFF711FF2921F2
:1007B00006461920FFF70CFF2A2182461920FFF771
:1007C00007FF2B2105461920FFF702FF2C21814648
:1007D0001920FFF7FDFE2D2104461920FFF7F8FE32
:1007E00006EB0A26804646F3891007EE900AF8EEDB
:1007F000E77A2D4F17EE900A0DF0FCFA26A3D3E905
:1008000000230DF04FFB294B00220DF075FC0DF07D
:1008100041FE45EA0925386045F3891007EE900A44
:10082000F8EEE77A17EE900A0DF0E4FA1AA3D3E98E
:1008300000230DF037FB1AA3D3E900230DF032FBA0
:100840000DF028FE786004EB082040F3891007EED5
:10085000900AF8EEE77A17EE900A0DF0CBFA0EA3A5
:10086000D3E900230DF01EFB0DF014FE9FED107A6E
:1008700007EE900AC7EE877A08ABC7ED027A97E8D1
:10088000070003E907009DED050ADDED060A9DED71
:10089000071A08B0BDE8F0873333333333330F40E2
:1008A000FCA9F1D24D62503F0416002000408F4059
:1008B00000007A44000000002DE9F0472DED048B84
:1008C0008AB0FFF76DFF60EEA09AB0EE418AF0EEBD
:1008D000697AE0EE007ADFF85CA1F0EE408A17EE6C
:1008E000900AB0EE609A0DF085FA41EC100B0DF015
:1008F00019F818EE100A55EC104B0DF07BFA024671
:100900000B46204629460DF0F7FB41EC100B0CF08E
:100910004BFE28EE088A59EC108BF0EE487AE8EE90
:10092000A87A17EE900A0DF065FA41EC100B0CF066
:10093000F9FF55EC104B19EE100A0DF05BFA224648
:100940002B460DF0D9FB41EC100B0CF02DFE79EE8F
:10095000887A57EC106B17EE900A0DF04BFA41ECC9
:10096000100B0CF0DFFF55EC104B18EE900A0DF059
:1009700041FA22462B460DF0BFFB41EC100B0CF068
:1009800013FE4946404655EC104B0DF083FD9FED9C
:10099000288A07EE900A67EE887A17EE900A0DF023
:1009A00029FA21A3D3E900230DF0A6FB0DF072FD77
:1009B0003946CAF8080030460DF06CFD07EE900A83
:1009C00067EE887A17EE900A0DF014FA16A3D3E9B1
:1009D00000230DF091FB0DF05DFD2946CAF80400DF
:1009E00020460DF057FD07EE900A67EE887A17EE65
:1009F000900A0DF0FFF90CA3D3E900230DF07CFB66
:100A00000DF048FDCAF800009AE807000AAB03E9B8
:100A100007009DED070ADDED080A9DED091A0AB0F1
:100A2000BDEC048BBDE8F087182D4454FB21094030
:100A3000000034431016002070B5044680B91348F6
:100A4000134E05F087F8642546F001064FF47A400E
:100A5000B047013DFAD10F4A1C210E2000F064FC82
:100A60000D4A136813B92361146070BDE168D8683A
:100A70008142F8D31A6912B1D068814202D21C6156
:100A80002261F2E713461269F5E700BF46E900006C
:100A9000B0E9000088E90000A40C0020014B1868B0
:100AA000704700BFA40C0020024B186808B102690F
:100AB0001A607047A40C002000B5094B91B018686B
:100AC0000DF098F9074ACDE90001322103A805F09D
:100AD0003FF903A8FFF7DAFC11B05DF804FB00BF93
:100AE00000160020B6E9000070B50C4D0446012147
:100AF000284604F0B3FA0A4BB3FBF4F4094B0A4A54
:100B0000C3F80845D3F8083508495B081380284620
:100B10000223BDE87040012204F02EBA08EA00006A
:100B200020A1070000C00140CC0C00208002002062
:100B300010B50368292B044604D9074940F2CD10AB
:100B400000F044FF23681F2B83BF03F01F030348FB
:100B500023604FF0A04010BD44E8000000030050A7
:100B600007B5019001A8FFF7E3FF019A0123934025
:100B7000C0F80C3503B05DF804FB07B5019001A87F
:100B8000FFF7D6FF019A01239340C0F8083503B060
:100B90005DF804FB07B5019001A8FFF7C9FF019BB1
:100BA00003F5E073032240F8232003B05DF804FB53
:100BB00038B5054D044645F001054FF47A40A84785
:100BC000013CFAD138BD00BF10EA000010B52DED90
:100BD000028B414C86B094ED028AFFF7BFFD10EE08
:100BE000100A0DF007F902460B463C4804F0B2FF2C
:100BF000FFF7B4FDFFF760FED4ED027A78EE677A76
:100C0000FDEEE77A17EE900A04F07CFB2D2820DD3C
:100C100018EE100A0DF0EEF802460B46A068CDE97A
:100C200002230DF0E7F8DDE90223CDE900012C48AD
:100C300004F090FF242405A80594FFF779FF059A96
:100C4000D0F81035D340DB0710D42648012104F03A
:100C500005FA254B1B780D20CBB9FFF78EFF01203D
:100C6000FFF78BFF1120FFF788FF2DE040F22A20CD
:100C7000FFF73AFF4FF4FA70FFF79AFF40F2932024
:100C8000FFF732FF4FF4FA70FFF792FFD3E7174CEC
:100C9000FFF766FF94ED007AF3EE0B7AB4EEE77A95
:100CA000F1EE10FA4FF0010012DDFFF759FF94ED5D
:100CB000007ADFED0F7AB4EEE77AF1EE10FA4FF03A
:100CC0001100D0DDFFF74CFF06B0BDEC028B10BD6C
:100CD000FFF753FFEBE700BF10160020BDE900004F
:100CE000C7E9000008EA0000A80C00200016002058
:100CF00000002C4207B5242301A80193FFF718FF39
:100D0000019AD0F81035D34013F0010F064B15BFF0
:100D1000064807480022012214BF1A701A7004F016
:100D200019FF03B05DF804FBA80C0020CEE9000019
:100D3000DBE900000000000000B5454895B004F074
:100D400009FF00246FF0FF03224607A907934148DB
:100D50008DF8224005238DF82130099404F030F8F5
:100D60001120FFF717FF0120FFF714FF0D20FFF7F9
:100D700011FF1120FFF701FF0D20FFF7FEFE0120FC
:100D8000FFF7FBFE242302A80293FFF7D1FE029B8C
:100D900003F5E07303AD40F823402F4B0FCB85E8FC
:100DA0000F0008221023CDE9032329464FF0CC730E
:100DB0002A4805938DF8184003F0CAFE2748FFF72C
:100DC0004FFCFFF7BFFB00F085FC254A25480121B9
:100DD00000F0C8FC22464FF48041234800F0D4FCC8
:100DE00000F0B2F84FF47A70FFF7E2FE1F49204896
:100DF00000F0C8F81F49204800F0C4F81F4B1868DD
:100E00000CF0F8FF1E4ACDE90001322107A804F0DA
:100E10009FFF9FED0D0B07A8FFF7FAFA194B1A4A2F
:100E2000C3F81025194A4021116082F80643D3F80F
:100E3000042342F00102C3F804234FF47A70FFF751
:100E4000B7FEFAE7AFF30080000000000000E03FCB
:100E5000E7E9000008EA0000F8E900001CEA0000E9
:100E6000F50C000018EA0000AC0C0020CD0B0000CF
:100E700040420F00B90A000080841E0000160020C6
:100E8000B6E90000006000400102020000E100E05D
:100E90002DE9F04105468846174672B60C4E1420DF
:100EA00004F068FA01237364D6F84435C0F8008072
:100EB0002B44C0E9025307710446FFF7BDFDFFF75D
:100EC000EDFDC368C6F8543562B62046BDE8F08132
:100ED00000B0014010B50446A8B1036898472379D3
:100EE00063B1094B01225A64D3F84425A368134423
:100EF000E3602046BDE81040FFF79EBD2046BDE8F8
:100F0000104004F03FBA10BD00B0014038B50D4CA0
:100F10000023C4F8543172B60125FFF7C5FDFFF771
:100F2000D9FFFFF7BBFD58B1FFF7B8FDC368656493
:100F3000D4F84425A3F10A019142EED9C4F85435FE
:100F400062B638BD00B001400C4B0322C3F808253F
:100F50000022C3F804250422C3F810254FF4001220
:100F6000C3F80423064A4FF000611160602182F843
:100F70001B130122DA601A60704700BF00B0014005
:100F800000E100E00122FFF783BF000010B5036815
:100F9000292B044604D9074940F2CD1000F016FD74
:100FA00023681F2B83BF03F01F03034823604FF008
:100FB000A04010BD44E800000003005007B50190B8
:100FC00001A8FFF7E3FF019A01239340C0F80C3515
:100FD00003B05DF804FB07B5019001A8FFF7D6FF49
:100FE000019A01239340C0F8083503B05DF804FB73
:100FF00038B5054D044645F001054FF47A40A84741
:10100000013CFAD138BD00BFC0EA00002DE9F34130
:101010003D4F3E4E0524022517F8013B019301A8E0
:10102000FFF7B4FF019B03F5E07340F8235001A8DC
:1010300016F8013B0193FFF7A9FF019B03F5E0734D
:10104000013C40F82350E7D1152501A80195FFF791
:101050009DFF019B03F5E07340F2032640F82360F7
:10106000132401A80194FFF791FF019B03F5E0739E
:1010700040F2031840F823601C2601A80196FFF7F0
:1010800085FF019B03F5E0731E2740F8238001A82C
:101090000197FFF77BFF019B03F5E07340F8238086
:1010A0002846FFF798FF2046FFF795FF3046FFF7E9
:1010B00085FF3846FFF782FF1C20FFF77FFF1E20C9
:1010C000FFF77CFF4FF4FA70FFF792FF1C20FFF749
:1010D00082FF1E20FFF77FFF3220FFF789FF1C20D1
:1010E000FFF76CFF1E20FFF769FF4FF4FA70FFF760
:1010F0007FFF1C20FFF76FFF1E20FFF76CFFFA2019
:10110000FFF776FFD8E700BFB1EA0000ACEA0000C5
:101110007FB506460D46144672B601F0C7FB01F0D6
:101120000BFA0028FBD1134804F014FD44F201032C
:101130009E420AD044F202039E4215D12288616881
:101140000D4804F007FDFFF761FFA1680391084611
:1011500001F0E6FD23680195009302466368039958
:10116000064804F0F7FCEEE72946054804F0F2FCD7
:10117000E9E700BF34EA00004DEA000068EA000039
:1011800092EA000008B5FFF741FF704707B5044B2E
:101190000093044A402301F03BF803B05DF804FBE0
:1011A00005120000010D002030B5114D0FCD89B0A2
:1011B0006C460FC495E80F0084E80F000622282330
:1011C000CDE900234FF0FF33CDE9023309480A4B44
:1011D00006930022694600F0CBFD18B1074A46216C
:1011E00000F0A2F8064B00221A7009B030BD00BF13
:1011F00028EB00009002002000509D00C6EA00008D
:10120000000D002038B50E4B0E4D002018700E4812
:1012100004782D5DD2B21C4675B1043003F082FA19
:1012200018B10A4A562100F07FF8094B1A7812B11A
:101230002378002BFBD038BD0C3002F02FFFEFE7F6
:10124000410D00201C16002090020020C6EA00007C
:10125000000D002008B50848084A0378D35C33B174
:10126000043003F0E9F9BDE80840FFF79DBF0C30FA
:1012700002F0B4FEF7E700BF900200201C16002029
:10128000FFF792BF10B50848D4B20378074AD35C81
:10129000224623B1043003F045FA204610BD0C303D
:1012A00002F0FCFEF9E700BF900200201C160020AF
:1012B00008B50948094A0378D35C012243B10430D8
:1012C00003F0AAFA00280CBF01204FF0FF3008BD40
:1012D0000C3002F053FFF5E7900200201C160020AE
:1012E00038B50E4B1B680021986804F059FC4FF488
:1012F0000041002001F0C6F818B1094A142100F09D
:1013000013F8084D00F0E6FF0A2445F001054FF4FC
:101310007A40A847013CFAD138BD00BFB002002096
:1013200054EB0000B0EB000000B583B002900091D8
:10133000019244F2010071466A46FFF7E9FE03B0EC
:1013400000BD0000094A537891780133DBB299421D
:1013500008BF0023117899421FBF037050781823EB
:1013600003FB002014BF043000207047440D002010
:10137000024B4FF43C6043F001031847C0EB000000
:10138000F8B51F491F4B0025C1F84051C1F8445121
:10139000C1F84851C1F84C51C1F80051C1F804518D
:1013A0001B684BB3D1F8044517490968641A24F047
:1013B0007F442F461A68A24209D8A41A15441A7C01
:1013C000DE691AB1D3E905201F749047AEB90F4A00
:1013D0000F4B11781B788B4205D10133DBB2022B06
:1013E00008BF0023137012780A4B43F822500A4BAF
:1013F0004FF48012C3F80021F8BD3346DAE700BF8E
:1014000000100140640E0020600E00205D0E0020E0
:101410005C0E0020540E002000E100E02DE9F04FAA
:10142000A14AA24913780978A14D994285B03CD0D0
:101430000133DBB2022B08BF002313709D491278E1
:101440009D4B0F6853F822003B1823F07F43002286
:101450000B602B6816461446944613B942B12B60B4
:1014600006E0196881420ED902B12B60091A196091
:1014700001272B68DFF848A201934FF00008BEB99E
:10148000DFF844B262E0401A0C44D968D3F81CE09B
:10149000C3F800C031B13A1922F07F42C3E90121FB
:1014A000DE611E4673460122D7E700263746E0E795
:1014B0003446F6697F4A63681268DFF810C2A06894
:1014C000991A21F07F41614500F2A8800144216012
:1014D000012222742A680023C4E90133E361002A4F
:1014E00040F0A5802C60CAE79BF802105A1CD2B2CB
:1014F00091428BF8002004BF00228BF800201822B4
:1015000002FB03B32A6819799C68022977D0032962
:1015100000F08180012919D1207CB8B9D9686160B7
:101520001A69A2605A69E2609B69A361634B1B78E8
:10153000002B18BF01466160BCE78C4200F091802F
:101540008946C9690029F8D1002323749BF800302B
:101550009BF801209A42C7D12B68B8F1000F04D143
:10156000019A9A4201D1002F43D0002B41D0D3F8E9
:1015700000A0534D4F4BD5F804751C68DFF850811F
:101580003E1B98F8003026F07F4603369BB94FF497
:101590008033C5F84433C5F804334A4B4FF4003266
:1015A000C3F880211A604FF00109C5F80090FFF7D9
:1015B000DFFE88F80090B2452CBF5444A41924F0F3
:1015C0007F44C5F84045D5F80435DB1B23F07F4345
:1015D000E41B033324F07F44A3420AD9D5F8043531
:1015E000C5F84035FFF7C4FE364B4FF40032C3F860
:1015F0000021324B00221A7005B0BDE8F08F114671
:1016000091469FE71174D2690123002AFAD1002B79
:101610009CD02A609AE700231946F6E7D31A23F0F4
:101620007F43834234BFC31A0023236050E72168FD
:101630001368994213D8591A1160E26152E7091AE6
:10164000D8691A4638B1034618688842F7D3401A59
:101650001860184613462160E061DC610FE713460D
:10166000F2E74C4511D1D3692B6073B9DFF844E040
:101670000120CDE90212CAF80800CEF800300F4B65
:101680001870FFF775FEDDE902120B68C969C9F829
:101690001C1011B1086803440B602B68934218BFFB
:1016A0004FF0010850E700BF5C0E00205D0E0020E7
:1016B000640E0020600E0020540E0020500E00200A
:1016C0000010014000E100E0440D0020FEFF7F001B
:1016D000510E0020F8B51B4E4FF40033C6F8803091
:1016E000BFF34F8FBFF36F8F174D184F4FF48033F9
:1016F0000124C5F84833C5F808336C60FFF738FE9D
:10170000AC6000243C60FFF733FE114B1C70114BA2
:101710000B221C809A70104B1C60104B1C70104BDD
:101720004FF480121C70E023C6F8802186F8143331
:101730003260C5F8084586F81133D5F804353B60AA
:101740002046F8BD00E100E000100140600E0020DE
:10175000510E0020440D0020640E00205C0E00207D
:101760005D0E0020074B9B784BB132B128B1036866
:10177000187C20B959745A617047072070470820B7
:10178000704700BF440D00202DE9F3411D4FBB7889
:1017900004460D4616469BB390B31B4B4A1F9A4214
:1017A0002CD8436963B3437C0020012B0CBF8846CF
:1017B0004FF0000800F04EF80DF10700FFF7C2FDF2
:1017C000D0B101230370114B4460D3F80435C0E954
:1017D0000486C0E902359DF807307B7000240020A4
:1017E00000F048F824B90A4B4FF48012C3F80021E6
:1017F000204602B0BDE8F0810424F0E70724F7E7B3
:101800000824F5E7440D0020FAFFFF000010014016
:1018100000E100E072B6024A1368013313607047BA
:10182000680E0020034A1368013B136003B962B6D7
:10183000704700BF680E0020EFF30583C3F3080371
:101840002BB9EFF31480C04300F001007047012072
:101850007047000008B5FFF7EFFF012803D00449E7
:10186000432000F0B3F8BDE80840FFF7D3BF00BF46
:10187000C6EB000008B5FFF7DFFF012803D00449DD
:10188000512000F0A3F8BDE80840FFF7CBBF00BF30
:10189000C6EB00001EF0040F1CBFEFF309800AE046
:1018A000EFF308800549064A884201D8904202D8E1
:1018B0008D464FF00000034B184700000000022047
:1018C00000E00120C91800002DE9F347054600F0AB
:1018D000EDFF00F031FE0028FBD12F4C2F48304B9C
:1018E000241AE40824049F6A44F00104002D4ED019
:1018F000AA692C49204600F08BFFEB680193AB6886
:10190000294900932046D5E9002300F096FFEB69B2
:1019100000932649D5E90423204600F082FF204B9E
:10192000DB6A980703D52249204600F06DFFDFF8F7
:101930009490DFF894A000264FF0010808FA06F30F
:101940003B4206D059F826201AB15146204600F0F5
:101950005FFF01361A2EF1D1390605D5104B154916
:101960005A6B204600F054FF3A0405D50C4B12493F
:101970009A6B204600F04CFF104B1B68DB0700D52C
:1019800000BE2846FFF7FEFB02B0BDE8F0870C4919
:10199000204600F039FFC2E7DC01010084010100AC
:1019A00000ED00E01BEC000030EC000065EC0000F6
:1019B000C0EC00000FED00002FED0000F0ED00E0A6
:1019C0008DEC00000CF2000004ED000007B5ADF84E
:1019D000000001916A46002144F20200FFF798FBE3
:1019E00003B05DF804FB10B5034653E8000F0A4648
:1019F00043E8002494F0000FF7D110BD10B5034662
:101A000053E8002F42EA010043E8000494F0000F7D
:101A1000F6D110BD10B5034653E8000F00EA0102ED
:101A200043E8002494F0000FF6D110BD10B5034632
:101A300053E8002F02EB010043E8000494F0000F8C
:101A4000F6D110BD10B5034653E8002FA2EB0100FC
:101A500043E8000494F0000FF6D110BD0121FFF718
:101A6000CDBF0021FFF7D6BF10B50446002834D003
:101A700003681BB91A49FF20FFF7A8FF636823B961
:101A800017494FF48070FFF7A1FFA36823B91449E9
:101A900040F20110FFF79AFFE36823B910494FF4B1
:101AA0008170FFF793FF238A23B90D4940F2031099
:101AB000FFF78CFFD4E9012321689B1ADBB20A608F
:101AC000013BDBB2FF2B226802D10020107110BD58
:101AD0001168481C10600B70F2E70E20F7E700BF9A
:101AE00074F2000038B5044620B912494FF49270E0
:101AF000FFF76CFF0020FFF7ADFE226861681368F6
:101B00008B4215D9591E116013F8015C228AE368D3
:101B100002FB05352268A36811685B1A1179DBB2F4
:101B2000994200D213710020FFF7A4FE284638BD69
:101B30000025F8E774F2000038B50C46054620B9D8
:101B40000E4940F24710FFF741FF24B90B494FF40B
:101B5000A470FFF73BFF0020FFF77CFE2A681368A4
:101B6000591C1160E968641A298AB4FBF1F41C70ED
:101B7000BDE838400020FFF77DBE00BF74F20000D2
:101B80001FB503788DF800308388ADF80430836882
:101B90008DF80630C3688DF80730036902934369F6
:101BA000054A0393054B684653F8213052F821103B
:101BB000984705B05DF804FB6C0E0020740E002001
:101BC00010B50368292B044604D9074940F2CD100B
:101BD000FFF7FCFE23681F2B83BF03F01F0303489E
:101BE00023604FF0A04010BD44E800000003005007
:101BF00007B5019001A8FFF7E3FF019A0123934085
:101C0000C0F8083503B05DF804FB0000024B4FF448
:101C1000807043F001031847D0F200002DE9F7432C
:101C2000154690F80080354A42F82850344A42F868
:101C300028304B7B06460C4683B30B684FF0A04719
:101C400003F5E07340F20C6247F823204B6803F57C
:101C5000E0734FF0010947F823200868FFF7C8FF39
:101C60006068FFF7C5FF236803F5E07340F20D627B
:101C700047F82320636803F5E07347F82320FFF754
:101C8000C5FF00276368019301A8FFF799FF019A38
:101C9000D0F81035D340DB070CD5FFB9002D194A19
:101CA000434608BF2A462146301D01F089FC03B097
:101CB000BDE8F0832368019301A8FFF781FF019B32
:101CC00009FA03F3C0F80C35FFF7A0FF01372068CD
:101CD000FFF78EFFFFF79AFF092FD3D163680193B7
:101CE00001A8FFF76DFF019A01239340C0F80C355E
:101CF000FFF78CFF6068FFF77BFFCFE7740E0020D3
:101D00006C0E0020811B00001FB503788DF8003099
:101D10004368019383688DF80830C368054A0393CC
:101D2000054B684653F8213052F82110984705B00A
:101D30005DF804FB7C0E0020840E00201FB50378A4
:101D40008DF800304368019383688DF80830C368CC
:101D5000054A0393054B684653F8213052F8211089
:101D6000984705B05DF804FB7C0E0020840E00202F
:101D7000F0B5194B90F800C0DFF86CE043F82C2068
:101D8000164B16460A6943F82C204B7F0EF80C3090
:101D90000C4607460FCC89B06D460FC594E80F007E
:101DA00085E80F003B78CDF810C01EF803304BB12A
:101DB000002E0B4A694608BF3246381D02F040FB30
:101DC00009B0F0BD002E074A694608BF324607F148
:101DD0000C0002F011F8F3E7840E00207C0E0020C6
:101DE000091D00003D1D00001C16002010B5044612
:101DF00018B906493120FFF7E9FDA2682AB16369E5
:101E00002168206998470023A36010BDD6F2000026
:101E10000EB433B5059D044618B911494220FFF7A9
:101E2000D5FD63691BB90E494320FFF7CFFD236839
:101E30001BB90B494420FFF7C9FD63681BB908496A
:101E40004520FFF7C3FD35B106AB01AA2946204660
:101E5000019300F071F802B0BDE8304003B0704764
:101E6000D6F20000826830B40468551C8560A15425
:101E7000D0E901329A4202D330BCFFF7B7BF30BC81
:101E8000704700002DE9F84F9846DDE90A431546F2
:101E900082460F460A464FF00109AA420FD2C145B9
:101EA00038BFC14613F0010B01D16CB900240126E3
:101EB000B8F1010F1BD908F1FF386E43F8E709F1BB
:101EC0000109B2FBF5F2E8E79B070ED5B8F1000F68
:101ED0000CBF30262026A145E9D2013C31465046B0
:101EE000FFF7C0FF002CF6D1E0E72026F3E7B7FBB1
:101EF000F6F39D42E1D9DFF83C80B7FBF6F350469C
:101F000018F8031006FB1377FFF7ACFF3346AB421C
:101F1000B6FBF5F6F1D2BBF1000F02D00CB1A14532
:101F200001D3BDE8F88F20215046013CFFF79AFF0E
:101F3000F4E700BF69F300002DE9F74F8846174624
:101F4000054620B9B14940F25220FFF73FFD6B69C9
:101F500023B9AE494FF41570FFF738FD2B6823B94C
:101F6000AA4940F25520FFF731FD6B6823B9A74914
:101F700040F25620FFF72AFDB8F1000F00F0428131
:101F800018F8011B49B92B7B002B00F03B81284638
:101F900003B0BDE8F04FFFF729BF252940F0B78017
:101FA000002698F800302D2B424608F1010823D076
:101FB000302B24D02B2B25D000242A2B02F1010119
:101FC00023D13B681A1D3A601B680A461C441378EB
:101FD0002E2B26D101324FF0000A104610F8011BBB
:101FE000A1F1300CBCF1090F1DD80A2303FB0A1321
:101FF000A3F1300A0246F0E746F00106D1E746F0C9
:102000000206CEE746F00406CBE711F8013CA3F147
:1020100030000928DBD80A2202FB0434303C0A468F
:10202000CBE74FF0000A12F8011B01F0FB00682813
:102030009046F8D0782909D86F290CD8632962D046
:1020400022D8252963D0582900F0888098F80030DC
:10205000002B95D197E770390829F7D801A353F8D9
:1020600021F000BFDF2100004D2000004D200000C6
:102070006D2100004D2000004B2100004D2000008C
:102080004D2000005D210000642901D06929DDD1C7
:102090003A68111D3960D2F8009089EAE972A2EB22
:1020A000E9724FF0010B092A35DCD34538BFD3461E
:1020B0002CB1B9F1000F01DB720700D5013CB30769
:1020C00002D5BAF1000F03D0F00701D44CBB0024B5
:1020D000B9F1000F2DDAC9F100092D212846FFF7CB
:1020E000C1FE06F00302022A04D1BAF1000F01D1A9
:1020F0001CBB0024CDE9004653460A224946284627
:10210000FFF7C0FEA2E73B681A1D3A60197828461F
:10211000FFF7A8FE9AE70A230BF1010BB2FBF3F2DB
:10212000C1E7A345D4D220212846013CFFF79AFEFF
:10213000CCE77107D5D52B21D0E7A345DAD23021E2
:102140002846013CFFF78EFED2E73968CDE900460C
:102150000A1D3A6053460A220968D0E739680A1D09
:102160003A60CDE9004653461022F5E73B681A1D58
:102170003A6016F00106D3F8009028D1B9F1000FAB
:1021800003D0484603F03CFE0646B44200D904BBE7
:1021900009F1FF3919F8011F00293FF457AF28460C
:1021A000FFF760FEF6E728460136FFF75BFE19F8F9
:1021B00006100029F7D1A642BFF448AF002C3FF427
:1021C00045AF20212846013CFFF74CFEF3E70026EF
:1021D000EDE720212846013CFFF744FED5E73B68A8
:1021E0001A1D3A60302128461C68FFF73BFE782113
:1021F0002846FFF737FE00220823CDE900322146AA
:1022000010227CE703B0BDE8F08F00BF1CF3000094
:10221000F0B595B01D46164608460C4600F019FD6F
:102220001A9B0D93CDE9086500252B46082205A9C8
:1022300020460A958DF82C500C9500F031FD079B37
:102240000293069B03939DF814308DF8115003F010
:102250000302012A1DD1BDF81420059DC3F3C2035A
:10226000C2F383168DF81030B20008230EA9204661
:1022700000F016FDC5F3952508AB0093324602AB7E
:102280000EA9284600F088FB204600F0E6FC15B0B9
:10229000F0BD022AF8D1BDF81650C3F3C203C5F34E
:1022A00089158DF810300827082D2E4628BF0826DE
:1022B0003B4632460EA9204600F0F2FCAD1B08ABAF
:1022C00002AA31460EA8374400F0CAFB002DEBD11C
:1022D000DAE7000008B5FEF7D3FF0748042100F055
:1022E000BBFA002803DA05494820FFF76FFB044BCF
:1022F00001225A7108BD00BF1402010079F30000E9
:10230000A4020020037813F0040216D003F00303A4
:10231000012B03D0022B09D0012070470A680088E6
:102320000232C0F3831002440A60F5E70B6842886A
:10233000023303EB92130B60EEE710467047000088
:102340002DE9F04F044687B0861C00200F46154645
:10235000FFF780FA494801683960D0E90132134437
:1023600001335B1A824600F21C4700F5836900F2D4
:102370001448B3421BD30020002D7AD004F00F0381
:102380009B0143F0050363F30F00DAF80020DAF84D
:1023900008301340033316444AF823000020CAF8DB
:1023A0000060FFF767FA012007B0BDE8F08F012158
:1023B0003846FFF73BFB4846FFF750FB4046FFF728
:1023C0004DFBDAF80400DAF808B0029000EA0B00DE
:1023D00003300AEB800002A9FFF794FF029B02463C
:1023E000F8B90BEA03010AEB810103F1020CC8689A
:1023F0000390013303EA0B0B0AEB8B0B00F0030095
:102400000128DBF80C10CDF808C02AD002280BD028
:102410001B4901924FF4BF70FFF7D8FA019A934617
:102420000CE00BEA0300D3E7BDF80E30C3F38913C9
:1024300003334FEA114B0CEB930302934046FFF733
:1024400010FB10B1029BCAF8043059463846FFF71A
:10245000EDFADAE901231344DAF8002001339B1A7C
:1024600087E7BDF80C30C3F383134FEA114B634485
:10247000E3E7A40544F0060087E700BF5C0F0020F7
:10248000E9F300000B4B0C48FF2210B59A600022C4
:10249000C3F81824C3E90022C3F81424012283F8E6
:1024A000202400F08FFB044610B9044800F00CFC17
:1024B000204610BD5C0F0020EC01010058F4000024
:1024C00030B50A4C71B10A4A0A49121BD2080023DE
:1024D0009A4201D1002030BD31F82350854202D00C
:1024E0000133F5E7034654F83300F4E784010100B3
:1024F000EC010100740C0020094B013903EBC00012
:10250000032909D8DFE801F00A0204060420704715
:10251000007970474079704700207047022070476B
:1025200084010100034BD3E90030C31A58425841DB
:10253000704700BF5C0F00202DE9F04385B0FFF726
:10254000F1FF0646002840F0F5807B4DC5F81804E1
:10255000BFF34F8F6B68AC6800932340033305EBE8
:1025600083006946FFF7CEFE009B18B1D5F818240A
:10257000002A5FD004EA0302991C013305EB8202B2
:10258000234005EB8303D268DB68029302F0030368
:10259000022B0192009160D1BDF806306748C3F369
:1025A0008917502FB84628BF4FF0500868F38F1393
:1025B00008F10801ADF8063000F01CFB06460028C3
:1025C00000F0A38000F045FB0023082201A930465B
:1025D00000F052FB009924EA01020132B8EB820FAD
:1025E0004FEA820332D95FFA88F85BB32140DCB24C
:1025F000A8EB040803315FFA88F9A046504C05EBBC
:10260000810108234246304600F036FB34B108F120
:1026100008034A462146304600F02EFB009B033754
:1026200003EB97070097D5F81834002B49D1D5F85C
:10263000104459E02A689A428FD86A60304605B043
:10264000BDE8F0833E491C469946DAE70C40E11CA0
:102650000823424605EB8101DDE7012B55D1BDF88A
:1026600004303648C3F38311062928BF062161F3DD
:10267000891302318900ADF8043000F0BBFA064638
:10268000002842D000F0E5FA0023082201A93046D4
:1026900000F0F2FA0027BDF80420C2F38312BB0059
:1026A000974203F10803BED200994A1C214003312E
:1026B000009205EB81010422304600F0DDFA01377B
:1026C000E9E7304600F0C9FAFFF72CFF80F001007F
:1026D000C6B2B3E7E3685B7923B1236831461B6870
:1026E00020469847E3681C68002CF3D1304600F080
:1026F000B4FA2046FFF7AEF8D5F818340BB9009BB2
:102700006B600020FFF7B6F8DEE7D5F8104454B947
:102710000C4B0D480D49C01AC008000440F00200DF
:1027200000F072F8D0E7236820469B689847E3687A
:102730001C68ECE7002681E75C0F0020EC0101003B
:10274000680F002084010100CC01010040F400006A
:102750002DE9F74F274D04460F46914601A9012266
:102760001846D5F808A09846FFF7EAFD78B3019E11
:102770000023B01C434503EB000132D100211E4869
:10278000FFF731F94FEA144980F3100B1B4B1C4A39
:102790009B1AB9EBD30F04D31A4940F2A310FFF7E9
:1027A00015F9731C03EA0A03E40005EB830304F044
:1027B000380449EA0B4006EA0A0644F00104D860EE
:1027C000033644EA881343EA872345F8263095F810
:1027D00020341BB1FFF7B0FE0028FBD103B0BDE8E9
:1027E000F08F0AEA010105EB810159F82320CA6044
:1027F0000133BFE75C0F002078130020EC010100DB
:1028000084010100E9F3000000231A46FFF7A0BF8E
:1028100007B50123019201AAFFF79AFF03B05DF803
:1028200004FB1FB5CDE90123069B039301AA0323F3
:10283000FFF78EFF05B05DF804FB1FB5CDE900235F
:10284000069B0293079B03936A460423FFF780FFCE
:1028500005B05DF804FB000030B5134AD2F810440F
:1028600003460020214649B9DC682071D2F81044A3
:1028700054B9C2F81034DB68196030BDC9680D79ED
:1028800085420AD00968EEE7E468D96824680C60DC
:10289000D2F81024D2681360EFE701300A28E1D1A2
:1028A0004FF0FF30E9E700BF5C0F002038B5094A60
:1028B0000123D2F8104482F820341D4604B938BDF3
:1028C000E3685D71236820465B689847E3681C688D
:1028D000F4E700BF5C0F002007B503460846197AED
:1028E000052911D05B7A2BB1094A0A490190FFF7FB
:1028F0008FFA019808490190FFF78AFA019803B00E
:102900005DF804EBFFF772BA002AF8D0F2E700BFD7
:1029100064F4000069F4000089F4000030B5C38855
:1029200085B004460D4633B1144A00921449154A45
:102930002846FFF76DFA217A05291DD0637A4BB13D
:10294000A088FFF7D9FD104B104953F820202846E6
:10295000FFF75EFA227A0E4BA08853F822200392EA
:102960000021FFF7ADFD039A0A490346284605B04A
:10297000BDE83040FFF74CBA05B030BD64F400004C
:1029800074F400006CF40000F0F4000069F400003E
:1029900014F500008CF400002DE9F04385B01F46CB
:1029A0000C9D002395F80C902B7306460C46904620
:1029B00029463846FFF7B2FFB8F1060F09D8DFE81D
:1029C00008F00412181F2833400031462846FFF74C
:1029D0001FFA002229463846FFF77EFF85F80C9043
:1029E00005B0BDE8F083226831462846FFF710FAAB
:1029F000EFE7D4E9002331462846FFF709FAE8E774
:102A0000A36800933146D4E900232846FFF700FA73
:102A1000DFE7E3680193A36800933146D4E900231C
:102A20002846FFF7F5F9D4E723690293E368019399
:102A3000A36800933146D4E900232846FFF7E8F95C
:102A4000C7E76369039323690293E3680193A3686B
:102A500000933146D4E900232846FFF7D9F9B8E7B7
:102A600008292DE9F84F80460E4617461C463BD8EC
:102A7000002593F80C901D7319461046FFF74EFF82
:102A8000DFF88CA0DFF88CB0AE422FD918F8052003
:102A900059462046FFF7BCF90135082DF4D11949F4
:102AA000194DDFF874A02046FFF7B2F94FF0000B84
:102AB0005E4522D918F80B207E2A1CD8134BD15C16
:102AC00011F0970F08BF2E2251462046FFF7A0F9BC
:102AD0000BF1010BBBF1080FEAD101222146384668
:102AE000FFF7FAFE84F80C90BDE8F88F51462046B7
:102AF000FFF78EF9D0E72E22E6E729462046FFF7BA
:102B000087F9E5E7A0F400009EF4000021FD000035
:102B10009CF4000096F40000A2F400002DE9F74FA9
:102B200099469DF83030009388469346064618B97A
:102B30002349B620FEF74AFFF18872794A43043AE6
:102B40004A4505D81E490192C420FEF73FFF019A6D
:102B5000DBF80070B6F806A007EB0901914209F115
:102B6000040488BFA2EB0907B4FBFAF5CBF80070A8
:102B70000AFB154445B9AAEB040BBB4528BFBB466D
:102B80002FB903B0BDE8F08F3668013DF2E7009B36
:102B9000043408EB050034445A466BB12146A7EBD8
:102BA0000B0702F0E1FEBA455D443668D3464FF0AC
:102BB000000428BFBB46E3E701462046EFE700BF1D
:102BC00031F50000FEF750BFF8B546790146721E98
:102BD0000546002393422D6803D30024A64202D861
:102BE000F8BD0133F6E70F682846FEF7A5FF01346C
:102BF0003946F3E72DE9F843CD1C068A0746FEF770
:102C000071FF043E35440446B5FBF6F5F0B14FF4D0
:102C10008073EDB28380C680013D076081464FF02E
:102C20000008A84512D23846FEF75CFF064648B1B8
:102C300063790133637108F10108C9F80000076086
:102C40008146EEE72046FFF7BFFF34462046BDE849
:102C5000F88301210430FEF7E9BE10B501210446D6
:102C60000430FEF7EFFE10F0FF0F04D12046BDE860
:102C70001040FFF7A9BF10BD1FB5144603920022F4
:102C8000009203AAFFF74AFF039BA34203D0034924
:102C9000F620FEF79BFE04B010BD00BF31F500002A
:102CA0001FB5144603920122009203AAFFF736FFD4
:102CB000039BA34204D003494FF48070FEF786FEC5
:102CC00004B010BD31F50000826800239360826873
:102CD0001361826853618268D3608268536082683E
:102CE0001360704710B50D49A1F58C72914201D85F
:102CF00000200FE08C1AE30F03EBE4035B1002EB00
:102D0000C30452F83330834205D802D204F10802DA
:102D1000ECE7606810BD2146E8E700BF40FA00001C
:102D200008B5FFF7DFFF024B002808BF184608BDB3
:102D300012F90000026813685268934291BFD01ADA
:102D400080680130801888BFC01A704738B50C46BB
:102D5000054618B904498320FEF738FEAB68A34244
:102D60008CBF601C002038BD40FA000038B5044616
:102D700018B907499820FEF729FE236820461D68E8
:102D80005968FFF7E3FF431B5842584138BD00BF65
:102D900040FA00002DE9F0410D46044618B92C49CF
:102DA000A320FEF713FE1DB92949A420FEF70EFE4D
:102DB0000020FEF74FFD2046FFF7D8FF074610B171
:102DC000237C002B3DD1D4F800802046D8F8046045
:102DD000D8F80410FFF7BAFFC8F804002FB127682D
:102DE00020463968FFF7B2FF3860E2686068531E1A
:102DF000072B20D8DFE803F004101F141F1F1F1833
:102E00002B7883552046FFF795FF23689A68824206
:102E100000D29860002415E02B8820F81630F1E7E6
:102E20002B6840F82630EDE7D5E9002300EBC6001B
:102E3000C0E90023E6E7294606FB020002F094FD04
:102E4000E0E704240020FEF715FD2046BDE8F081F0
:102E500040FA000010B5044620B9064940F22B2084
:102E6000FEF7B4FD236818685B68C31A58425841DE
:102E700010BD00BF40FA00002DE9F0410C4690461D
:102E8000054618B92249E720FEF7A0FD1CB92049E4
:102E9000E820FEF79BFD0020FEF7DCFC2846FFF74C
:102EA000D9FF002832D12F683E68B8F1000F04D155
:102EB00039682846FFF74AFF3860EA686968531E98
:102EC000072B1DD8DFE803F0040D1C111C1C1C157A
:102ED0008B5D237000240020FEF7CCFC2046BDE86B
:102EE000F08131F816302380F4E751F82630236062
:102EF000F0E701EBC601D1E90023C4E90023E9E7CB
:102F000006FB0211204602F02FFDE3E70524E2E76D
:102F100040FA000000F1804000F5C040002382B07C
:102F2000036003680193019B02B0704710B503680A
:102F3000292B044604D9074940F2CD10FEF746FD7F
:102F400023681F2B83BF03F01F03034823604FF048
:102F5000A04010BD44E800000003005013B50190EC
:102F600001A80C46FFF7E2FF019B00EB8300D0F8BD
:102F7000003723F44033C0F80037D0F8003743EA75
:102F80000443C0F8003702B010BD00004FF0A0436A
:102F9000D3F810350360024BD3F810354360704707
:102FA000000300502DE9F04F00248BB0CDE902441E
:102FB000624D4FF48072012102F1804303F5C0435A
:102FC00090B21B68012B06D1D5F804330B4202D016
:102FD000FFF7A0FF0C430432B2F5907F4FEA4101A6
:102FE000EAD1574B1B68012B08D14FF4BE70FFF795
:102FF00091FF02A844F00044FFF7C8FF14F0FF0F50
:103000001AD0504F00250126344210D0AB0003F1F6
:10301000804303F5C043D3F81005D3F8101557F8D3
:10302000253023B1C1F30141C0F305209847013594
:10303000082D4FEA4606E7D1002C7BDA04AF0023C7
:1030400004937B604FF0FF33CDE90633DFF8F49053
:103050003D4B009300263546009A12F9013B009241
:103060005A1C51D0C3F3C2000121DAB203F03F0B66
:1030700003F0070301FA03F40AAB191811F8103C26
:10308000234241D04FEA921A09EB0B0292F9302009
:1030900059F82280B8F1000F09D1BAF1030F33D1EA
:1030A00017F800C04CEA040C07F800C002E0BAF1BF
:1030B000030FF5D008A80191CDF820B0FFF736FF37
:1030C000089B019903F5E07C11F8201C50F82C00B6
:1030D0002142C0F3014006D0022815D1BAF1030FF6
:1030E0000CD1514605E003280ED1BAF1030F05D1EA
:1030F00002215846FFF732FF0135EDB2B8F1000F5B
:1031000002D051465846C0470136042EA4D18DB195
:1031100008A8FFF73BFF029B089A9A42099B02D13D
:1031200003998B4206D002920393049A059B069260
:1031300007938DE70BB0BDE8F08F00BF0060004043
:103140007C610040181400207214002010B5054C5A
:1031500022681AB904495120FEF738FC2368BDE8FB
:1031600010401847801400209BFA000038B50D4627
:1031700028B90C497720FEF729FC002038BD0A4BFE
:103180009842FAD10020FEF765FB084B1C7914B970
:1031900001221D601A710020FEF76CFB002CECD0A0
:1031A0001120EBE79BFA0000002000408014002073
:1031B00018B906499B20FEF709BC054B984201BF90
:1031C000044B00221A601A71704700BF9BFA00007E
:1031D000002000408014002000F1804000F5E04015
:1031E000002382B0036003680193019B02B0704723
:1031F000F0B5504B504C1B6885B0002B3DD04FF4C0
:10320000827094F82E20FFF7E7FF2AB394F82F304E
:1032100013BB4A4B1B68002B33D04FF48070FFF771
:10322000DBFF638B94F82D108B424FD922895B1AF8
:103230009BB292B26383D31A626802EB4303404AA3
:10324000C2F82C36C2F830164FF48270FFF7C4FF74
:103250003C4B01221A6014E0636802932389ADF8A5
:103260000C30E36800218DF8041023BB237423681D
:1032700001A89847002384F82F3094F82E30002BB3
:10328000C7D1314B1B685BB14FF48870FFF7A4FFC7
:103290000023237402238DF8043001A82368984783
:1032A0002A4B1B68EBB14FF48A70FFF795FF0023A0
:1032B000237405B0F0BD208B608363602081E160E2
:1032C000002AD4D11E4B01221A60D0E7BCD1E3689A
:1032D000012284F82F2013B100226283AFE76383B9
:1032E000B2E766694FF000470125002EE1D0B6FA3B
:1032F00086F227FA02F34632920026EA030602F12A
:10330000804303F5E0431B68002BEED01046FFF727
:1033100063FFA2F58C72D30882F00402C2F380022C
:103320008DF808308DF8045023688DF8092001A825
:103330009847DAE7047100408814002000710040CB
:103340000070004004700040107100401471004093
:103350002DE9F743002406460F4600F5A0754FF40B
:103360008038A1462B688BB1D6F8043308FA04F2F2
:103370001A420BD0C5F800902B680193019BA30063
:1033800003F5A07398B2D7E9003198470134042CB3
:1033900005F10405E6D103B0BDE8F0830149024818
:1033A000FFF7D6BFB8140020008000400149024852
:1033B000FFF7CEBFC414002000900040002343500C
:1033C00082B043580193019B02B070470B7B032BE3
:1033D0002DD8DFE803F025291D028A68154B9A4293
:1033E00004D1D0F84C350A699A4209D18A6840F272
:1033F00002239A421BD1D0F84C354A699A4216D022
:1034000000230622C0F80035C0F800251846704792
:10341000D0F84C350A699A42F2D1D0F83C35ECE745
:10342000D0F84C350A69E9E7D0F83C35FAE70120D5
:10343000704700BF0002040010B50368292B044642
:1034400004D9074940F2CD10FEF7C0FA23681F2BBC
:1034500083BF03F01F03034823604FF0A04010BD5B
:1034600044E8000000030050F0B5504C236887B0DA
:1034700023B94F4940F28620FEF7A8FA4D48D0F80C
:1034800024310546ABB14FF49271FFF797FFD0F8A6
:10349000043173B9A368C0F808330223A360A3689A
:1034A000C0F8043301230362436184F82E3007B06F
:1034B000F0BDD5F80431002B42D03F4D3D484FF4CC
:1034C0008271FFF77BFF0FCD01AE0FC62B68336013
:1034D00094F82E3043B93748A5F11C01FFF776FF69
:1034E00080F0010084F82E0032484FF4B071FFF7ED
:1034F00065FF30484FF4AE71FFF760FF94F830304D
:1035000013B194F82E303BB12A4B0022C3F80022AD
:10351000A2602A4AC3F80823264AD2F8C434C2F863
:10352000C4349A0736D501238DF8003094F8303032
:103530000BB984F82F30D4E9003168469847B6E7D4
:103540001C484FF4A471FFF739FF237B83B91A4F4E
:103550000FCF01AE0FC63B68336094F83030002BBC
:10356000DAD1C5F80032A360144BC5F80833D3E7AD
:103570004FF40073C5F8003240F20223A36003F158
:10358000CE73C5F80833A368C5F804330123AB60D4
:103590002B628CE713F0050F01D00223C4E794F8E7
:1035A0002E30002BC0D00423BEE700BFD014002073
:1035B000FAFA000000300040DC14002002029C01F6
:1035C0002DE9F04F85B08146934601930C4619B919
:1035D0004549E220FEF7FAF9D4E900239A4203D1E3
:1035E0004149E320FEF7F2F999F804803F4F342374
:1035F00003FB08FA07EB0A0696F82D20002A6FD184
:103600003B49D9F80000FFF7B1FD0546002869D114
:10361000019B47F80AB07360B06086F8300086F806
:103620002F00627B86F832202268039203A8FFF7FE
:1036300003FF039A02F5E07240F20C6640F8226044
:1036400003A862680392FFF7F7FE039A02F5E0729F
:1036500040F82260D4E90010D9F8002057F80A3069
:10366000C2F80815C2F80C05A168C2F824156BB39E
:10367000247BD9F80060072C4FEA163A46F3073648
:1036800003D91C496B20FEF7A1F9002EAEBF06F14D
:103690006043194B0AF00F0A4FEA4414A8BF03F520
:1036A0006143E4B2B4BF03F80A4083F80043D9F899
:1036B00000301A0B43F30733002B07DB02F01F0126
:1036C00001228A405B090D4941F82320342303FB82
:1036D0000877012387F82D30284605B0BDE8F08F24
:1036E0000825F9E71125F7E7FAFA0000D0140020C1
:1036F0006934000046FB000014ED00E000E100E04A
:1037000070B50D4D0479342202FB0452064692F83E
:103710002D20012A04D009494FF4A570FEF756F96F
:1037200033680622C3F80025342303FB0454022324
:1037300084F82D3070BD00BFD0140020FAFA0000CC
:1037400070B5114D0479342202FB0452064692F8FA
:103750002D2022B90D4940F25510FEF737F93422D9
:10376000336802FB04540021094AA160C3F808230E
:10377000D3F8002222F4BC52C3F80022C3F800158B
:10378000012384F82D3070BDD0140020FAFA000017
:1037900002029C01F7B5294E0579342303FB05632A
:1037A000044693F82D3023B9254940F23110FEF735
:1037B0000DF934236B43F35893B123681A0B43F389
:1037C0000733002B0CDB02F01F015B0901228A404A
:1037D00020331C4941F82320BFF34F8FBFF36F8F75
:1037E0002046FFF7ADFF2068FFF7E2FC342303FB20
:1037F000056393F83230C3B9236801A8D3F80835BC
:103800000193FFF719FE019B03F5E073022740F8CF
:103810002370236801A8D3F80C350193FFF70CFE41
:10382000019B03F5E07340F82370342303FB056527
:10383000002385F82D3003B0F0BD00BFD014002068
:10384000FAFA000000E100E02DE9F84303790446AC
:103850000D4690463BB94B68B3F5803F03D28B6869
:10386000B3F5803F04D3C04940F22F20FEF7AEF8F5
:1038700094F80490BD4E342707FB09F7F3599BB920
:103880002B78022B08D02B78032B0DD1B6494FF49F
:103890000E70FEF79BF807E0B34940F23720FEF7C1
:1038A00095F8F359002BEED0342707FB0967002366
:1038B000246887F82E30EB6803F06043B3F1005FB3
:1038C00003D010273846BDE8F883A94BC4F8083365
:1038D00097F82F3023B1BB68C4F804331127F1E700
:1038E00018F0140F0CBF0123002387F82F30AE46C9
:1038F000BEE80F0007F10C0CACE80F00DEF800305A
:10390000CCF80030C8F3001387F830306B78C4F877
:1039100088354FF482712046FFF750FD4FF49271C5
:10392000FFF74CFD18F0010318BF0123C4F8503510
:1039300018F0020318BF0123C4F840352B78032B7D
:1039400000F2E780DFE803F0A7CF880218F0100F3D
:1039500004D0854940F2AB10FEF738F818F0080F94
:1039600004D081494FF4D670FEF730F818F0040FF8
:1039700004D07D4940F2AD10FEF728F82B6903F022
:103980006043B3F1005F9CD14FF48073C4F8003200
:103990006B68EA68C4F844252046C4F848354FF4FB
:1039A000A871FFF70BFD4FF4B071FFF707FD4FF45F
:1039B000A471FFF703FD01232362A360D4F8503103
:1039C000002BFBD04FF4A8712046FFF7F7FCAB6843
:1039D0002A69C4F84425C4F84835342303FB096335
:1039E000644A9A604FF482730822002718F0080F87
:1039F00004D1297803291CBF0121A150342202FBE4
:103A000009F2B118B258002A40F0888001222344FC
:103A10001968002900F08F803421D4F8C434C4F828
:103A2000C43401FB0962002082F82F00002B00F053
:103A3000918013F0010F14BF4FF40247032748F29F
:103A4000012213F0020F18BF174613F0040F48F2BB
:103A5000022318BF1F4635E76B68EA68C4F844259F
:103A6000C4F848352B6903F06042B2F1005F7FF47F
:103A700028AFAA68C4F834354FF48453C4F8382505
:103A8000C4F80032342303FB096340F202229A6037
:103A900001232362A6E76B68EA68C4F8442518F09E
:103AA000200FC4F848354FF0340310D003FB0963EE
:103AB0004FF48072C4F800222E4A9A604FF4A47129
:103AC000FFF77CFC4FF4A473012222628CE74FF4D1
:103AD000007203FB0963C4F8002240F202229A60DC
:103AE0004FF48273F0E76B68EA68C4F83425C4F8D1
:103AF00038354FF48053C4F80032342303FB096394
:103B000040F202229A600123236200224FF4827362
:103B10006BE74FF482730822072767E718F0040F5A
:103B20001CBF4FF400738B60342303FB0966B3683A
:103B3000C4F80433C6E6D4F8241100293FF468AF72
:103B40004FF492712046FFF739FC4FF482732262E2
:103B500062615CE709FB01612046FFF737FC002842
:103B600008BF0327AEE600BFFAFA0000D014002019
:103B700002029C010002040007B5134B1A6862B1EF
:103B8000002018601B680093009B4FF080430122C7
:103B9000C3F808230D4B1B6898470D4B1A6882B178
:103BA00000221A601B680193019B4FF080430222A0
:103BB000C3F80823054B1B68012003B05DF804EB34
:103BC000184703B05DF804FB000100400415002015
:103BD000040100400023435082B043580193019BED
:103BE00002B070470A4610B54FF48E71FFF7F2FF2E
:103BF000136A9168C95C136A01331362C0F81C151B
:103C000010BD000010B50368292B044604D90749EC
:103C100040F2CD10FDF7DAFE23681F2B83BF03F0BF
:103C20001F03034823604FF0A04010BD44E800008C
:103C30000003005007B5019001A8FFF7E3FF019BC7
:103C400003F5E073022240F8232003B05DF804FB83
:103C500008B502464FF492710068FFF7BBFF4FF4BE
:103C600084711068FFF7B6FF136801221A6008BD5F
:103C700010B58B690A464FF4847123B9FFF7AAFF88
:103C8000D0F8183510BDFFF7A5FF536AD168D0F8FA
:103C90001805C854536A01335362F3E71FB5012373
:103CA0008DF80030044BCDE90110D3E900126846CD
:103CB000904705B05DF804FB0C15002030B54C486A
:103CC000D0F8043313F4007F85B005464DD0D0F80A
:103CD0002431002B49D04FF49271FFF77BFF4FF452
:103CE0000173C0F80833434B93F829200AB9012225
:103CF00042603F4902228DF80020D1F88024C1F8AB
:103D0000802403929A690292DA6801920022C3E940
:103D100006226846D3E9001290473548D0F81C3196
:103D20005BB134494A690B6A9A420A464BD991F809
:103D30002830002B47D1FFF755FF2D48D0F84431EC
:103D40008BB14FF4A271FFF745FF2A4B93F829205E
:103D50000AB1012202609A692AB10022586AD96820
:103D60009A61FFF79BFF05B030BDD5F804335B07C0
:103D7000D3D5D5F80831002BCFD01E4C1C48214696
:103D8000FFF776FF636AA2699A422346C5D1E269CA
:103D900052B12369E168E3600023606AA261E361D4
:103DA0006362FFF77BFFB8E794F829200AB9012284
:103DB0006A600F4A4FF40171C2F808130022586A72
:103DC000D9689A61EDE70A484FF48E71FFF702FF58
:103DD0005369002BB1D051690291002391688DF88D
:103DE0000030019153616846D2E900139847A4E777
:103DF000002000400C1500202DE9F34705469146B0
:103E00000C4619B96E49AA20FDF7E0FD6D4B2E79DD
:103E10002C2202FB0632984692F82A20002A40F013
:103E2000CA8069492868FFF7A1F90746002840F0D1
:103E3000C48023685A1C14D001A80193FFF7E2FE46
:103E4000019B012202FA03F3C0F8083523680193AD
:103E500001A8FFF7D7FE019B03F5E073032240F8AA
:103E600023206368581C09D001A80193FFF7CAFEFC
:103E7000019B03F5E073002240F823202B68A26920
:103E8000C3F82425217D637D2A680B43C2F86C3575
:103E9000D4E900122B68C3F81425C3F80C15237D50
:103EA000012B2BD1A368591C09D001A80193FFF75E
:103EB000A9FE019B03F5E073002240F82320E3688C
:103EC0005A1C14D001A80193FFF79CFE019B01220C
:103ED00002FA03F3C0F80835E368019301A8FFF77D
:103EE00091FE019B03F5E073032240F82320D4E9FF
:103EF00002122B68C3F80825C3F810152C2373434E
:103F000008EB0302C2F80490226948F80320B9F1D3
:103F1000000F3CD0286894F81C904FF48E71FFF786
:103F200059FE28684FF4A271FFF754FE2B68274A08
:103F3000C3F804232C68B9F1070F4FEA143A44F38D
:103F4000073403D922496B20FDF740FD002CAEBF9A
:103F500004F160421F4B0AF00F0A4FEA4919A8BF4B
:103F600002F561425FFA89F9B4BF03F80A9082F85A
:103F700000932B681A0B43F30733002B07DB02F087
:103F80001F0101228A405B09134941F823202B6855
:103F90000422C3F800252C2303FB06830022C3E977
:103FA000062283F829205A61012283F82A20384604
:103FB00002B0BDE8F0870827F9E71127F7E700BF4F
:103FC00095FB00000C150020BD3C000080000200A5
:103FD00046FB000014ED00E000E100E02DE9F843AD
:103FE000036805792A4E0022C3F800252C2303FB21
:103FF000056304465B68B3B10368264AC3F8082327
:1040000003681A0B43F30733002B0CDB02F01F018C
:104010005B0901228A4020331F4941F82320BFF366
:104020004F8FBFF36F8F23684FF0FF32D3F80C052B
:10403000D3F81495D3F80875D3F81085C3F8142570
:10404000C3F80C2523689042C3F80825C3F810254F
:1040500001D0FFF7EFFDB9F1FF3F02D04846FFF76F
:10406000E9FDB8F1FF3F02D04046FFF7E3FD7B1CBE
:1040700002D03846FFF7DEFD2068FFF799F82C23C1
:1040800003FB0565002385F82A306B60BDE8F883E3
:104090000C1500208402020000E100E02DE9F84F39
:1040A000344E077991462C2202FB0762054692F8AE
:1040B0002A20012A884604D02F494FF48C70FDF73E
:1040C00085FCB8F1000F04D12B4940F21910FDF71F
:1040D0007DFCB9F1000F04D127494FF48D70FDF735
:1040E00075FC2B792C2404FB0363D3F814B0BBF1CB
:1040F000000F3CD107FB046A4FF48E71CAF814908C
:10410000CAF80880CAF820B08AF828B02868FFF7F3
:1041100061FD2B6801229A6028685146FFF762FD15
:10412000DAF8043054468BB92868DAF81480236A28
:10413000984511D82B68D3F81C21002AFBD0012206
:10414000DA602C2303FB076300225A615846BDE85E
:10415000F88F94F828303BB9D0F81C31002BF8D0F8
:104160005146FFF73FFDE2E74FF00F0BE9E74FF055
:10417000110BEBE70C15002095FB00002DE9F8432F
:10418000484F05792C2303FB0573064693F82A3024
:10419000012B8846144604D043494FF4B670FDF70E
:1041A00015FCB8F1000F04D13F4940F26D10FDF746
:1041B0000DFC24B93C494FF4B770FDF707FC2C23E4
:1041C00003FB05735A6822B133684FF40171C3F8D9
:1041D00008132C2303FB0573986950B1D969002992
:1041E0003FD022B133684FF40172C3F80423112485
:1041F00034E09C61C3F80C805862D8612C2303FB27
:10420000057393F829301BB910B93046FFF720FD2C
:104210004FF02C0909FB05783068D8F80430002BE2
:1042200035D14FF4A271C146FFF7D4FC3068D0F805
:104230002431D0F80821D0F84441BAB90CB9002B88
:10424000F4D02C2202FB05750022AA612BBB34BBE3
:1042500095F8291033680122B9B11A602046BDE8EB
:10426000F883C3F81080DC610120C7E7002BE8D198
:10427000002CE6D14946FFF7FBFCD8F82430D8F8EB
:1042800018209A42D2D82346DBE75A60E6E74FF47B
:104290000173C0F804330024E0E70324DEE70F24B1
:1042A000DCE700BF0C15002095FB00000023435005
:1042B00082B043580193019B02B0704710B5036868
:1042C000292B044604D9074940F2CD10FDF77EFBA7
:1042D00023681F2B83BF03F01F03034823604FF0A5
:1042E000A04010BD44E800000003005007B5019055
:1042F00001A8FFF7E3FF019B03F5E073022240F8FA
:10430000232003B05DF804FB1FB501238DF80030B6
:10431000044BCDE90110D3E900126846904705B07F
:104320005DF804FB381500207FB5434AD2F82461BC
:10433000002E60D010464FF49271FFF7B7FF0223B2
:104340008DF80030D2F88034C2F880340393D2F86C
:104350003C350293394BDA6801920022C3E9062208
:104360006846D3E9001290473348D0F8443173B11E
:104370004FF4A271FFF79AFF304B9A693AB10022CD
:10438000C3E90622D968D0F83C05FFF7BDFF2A48EB
:10439000D0F82031ABB14FF49071FFF787FF0123C4
:1043A000C360264B5A6962B1D0F84C1502910022C5
:1043B00099688DF8002001915A616846D3E900128E
:1043C00090471D48D0F858319BB14FF4AC71FFF7BE
:1043D0006DFF1A4B5A6962B1D0F84C150291002258
:1043E00099688DF8002001915A616846D3E900125E
:1043F000904704B070BDD2F81031002BB4D04FF408
:1044000088711046FFF752FF0C4BD2F83C059969B2
:104410008842A9D1DC69D96864B1D2F8005225F08C
:104420002005C2F800521A699C61DA60DE61FFF76C
:104430006BFF99E79C61FAE70020004038150020E7
:104440002DE9F347054691460C4619B97349CF202B
:10445000FDF7BCFA724B2E79242202FB06329846F5
:1044600092F82020002A40F0D5806E492868FEF797
:104470007DFE0746002840F0CF8023685A1C13D0E9
:1044800001A80193FFF71AFF019A01239340C0F896
:1044900008352368019301A8FFF710FF019B03F57E
:1044A000E073032240F823206368581C09D001A858
:1044B0000193FFF703FF019B03F5E073002240F82F
:1044C00023202B68A269C3F82425217D637D2A68F7
:1044D0000B43C2F86C35D4E900122B68C3F80C15F5
:1044E000C3F81425237D012B2AD1A368591C09D0B8
:1044F00001A80193FFF7E2FE019B03F5E0730022A0
:1045000040F82320E3685A1C13D001A80193FFF759
:10451000D5FE019A01239340C0F80835E368019362
:1045200001A8FFF7CBFE019B03F5E073032240F8DF
:104530002320D4E902212B68C3F80815C3F81025FD
:104540002423734308EB0302C2F80490226948F85D
:104550000320B9F1000F4BD0286894F81C904FF459
:104560008871FFF7A3FE28684FF49071FFF79EFE55
:1045700028684FF49271FFF799FE28684FF4A271F2
:10458000FFF794FE28684FF4AC71FFF78FFE2B689D
:10459000254AC3F804232C68B9F1070F4FEA143AEF
:1045A00044F3073403D921496B20FDF70FFA002C9F
:1045B000AEBF04F160431E4B0AF00F0A4FEA4919DF
:1045C000A8BF03F561435FFA89F9B4BF03F80A9005
:1045D00083F800932B681A0B43F30733002B07DB98
:1045E00002F01F0101228A405B09124941F8232091
:1045F0002B680822C3F80025242303FB068300222E
:10460000C3E906225A61012283F82020384602B00D
:10461000BDE8F0870827F9E71127F7E7E6FB000078
:1046200038150020294300001003420046FB00001B
:1046300014ED00E000E100E02DE9F843364E057985
:10464000242303FB056304465B68B3B10368334A64
:10465000C3F8082303681A0B43F30733002B0CDB62
:1046600002F01F015B0901228A4020332C4941F8E6
:104670002320BFF34F8FBFF36F8F2268D2F8003231
:1046800023F02003C2F80032236801225A60206818
:104690004FF4AC71FFF70AFE2368DA602368D3F8A1
:1046A0005821002AFBD00022C3F8002523684FF0D0
:1046B000FF32D3F80C05D3F81495D3F80875D3F866
:1046C0001085C3F80C25C3F8142523689042C3F85D
:1046D0000825C3F8102501D0FFF708FEB9F1FF3F08
:1046E00002D04846FFF702FEB8F1FF3F02D0404635
:1046F000FFF7FCFD7B1C02D03846FFF7F7FD206872
:10470000FEF756FD242303FB0565002385F82030C2
:104710006B60BDE8F88300BF38150020100342002D
:1047200000E100E02DE9F047394F90F804802423A0
:1047300003FB0873044693F82030012B8946924608
:1047400004D0344940F22D10FDF740F9B9F1000FC3
:1047500004D130494FF49770FDF738F9BAF1000FE2
:1047600004D12C4940F22F10FDF730F9237913B909
:10477000BAF5803F04D327494FF49870FDF726F926
:1047800009F06043B3F1005F3DD12379242606FB95
:1047900003735D69002D38D106FB08764FF49071E4
:1047A000C6F814A0C6F808902068FFF77FFD4FF404
:1047B000AC712068FFF77AFD23687269B168C3F8AD
:1047C0004415C3F84825236801229A607368BBB971
:1047D0002368D3F82021D3F858511AB9002DF8D006
:1047E0000F2508E0002DFBD10122DA602268D2F803
:1047F0005831002BFBD0242303FB087700237B6177
:104800002846BDE8F0871025FAE71125F8E700BF34
:1048100038150020E6FB00002DE9F041484E0579EF
:10482000242303FB0563044693F82030012B8846BC
:10483000174604D043494FF4C070FDF7C7F8B8F1EC
:10484000000F04D13F4940F28110FDF7BFF827B9AE
:104850003C494FF4C170FDF7B9F8237913B9B7F5A6
:10486000803F04D3374940F28310FDF7AFF808F0DA
:104870006043B3F1005F61D1242303FB05635968F2
:1048800021B123684FF40472C3F80823242303FBE7
:1048900005639A6952B1DA69002A3DD021B12368D3
:1048A0004FF40472C3F80423112033E09F61C3F86E
:1048B0000C80DA6120684FF48871FFF7F7FC2068FC
:1048C0004FF4A271FFF7F2FC2368C3F83485C3F8F4
:1048D000387523682ABB01221A60217923682422B3
:1048E00002FB016252681ABBD3F81041D3F844218D
:1048F000D3F82401144302D10028F5D02246242302
:1049000003FB01660023984218BF03209A42B3615B
:1049100018BF0F20BDE8F081C3F81080DF610122CD
:10492000C8E7D3F8002242F02002C3F80022D4E7FF
:104930004FF40472C3F804230020EBE71020E9E7EA
:1049400038150020E6FB0000C0B2002348700B7051
:104950007047000070B50D46044618B9084971202B
:10496000FDF734F823681A6812683AB11A681B68B0
:1049700051681B682846BDE87040184770BD00BFED
:1049800039FC0000F0B5044687B018B92D4937202E
:10499000FDF71CF821680A7E0B689E6806EBC20EC4
:1049A0005FFA82FC56F832609EF805309EF804707B
:1049B000D0009EF8062012F0010F4FEA530503F0D5
:1049C000010337D0B3BBD1F800E09EF80CE00CF146
:1049D000010CF4452EDAD1F800C0DCF808C008302C
:1049E00084449CF805C0B5EB5C0F23D10B689B6831
:1049F0001A1853F800C05379087E92F804E09279AF
:104A000003F001030130C3F103035201C0B2DBB272
:104A100002F02002087601A904F10C00CDE9027E23
:104A2000CDE9046C8DF804308DF80550FEF70CFFCD
:104A300007B0F0BD52014FF0000C02F02002E64634
:104A4000E9E700BF39FC00002DE9F84F0E460446A7
:104A500018B927498720FCF7B9FF2568DFF894903B
:104A60004FF000080020FCF7F5FE16B923681B681C
:104A700043B9606800222946FEF7FEF988B3C5F8FD
:104A8000008000260020FCF7F5FE7EB32B681B6932
:104A90004BBB2F1D68691022394600F035FFA8B1C5
:104AA00004F10C0B584604F1080AFEF773FE234686
:104AB0004A4639465046FDF7B1F818B10C49B420C2
:104AC000FCF784FF5846FEF71BFE6F6185F81880DF
:104AD0002046FFF757FF014640B12046FFF73AFF57
:104AE000C0E70126CEE72B681F69D3E7BDE8F88F42
:104AF00039FC0000F94A000038B50C46054618B9E3
:104B00001249D220FCF762FF23681B681BB90F49CA
:104B1000D820FCF75BFF287868B92268137E1168FB
:104B20000133097BDBB2994206D913762046FFF7A1
:104B300029FF08B938BD032001462046FFF70AFFC8
:104B400020460121BDE83840FFF77EBF39FC000058
:104B5000F8B50D46044620B919494FF48470FCF7A6
:104B600035FF636823B9164940F20910FCF72EFFA0
:104B700063689B6823B912494FF48570FCF726FFE0
:104B800025B90F4940F20B10FCF720FF0D4A2346D0
:104B9000294604F10800FDF741F8074670B904F111
:104BA0000C00FEF7ADFD23681F6095E80F00266836
:104BB000043686E80F0023681A1D5A613846F8BD8E
:104BC00039FC0000F94A000037B50546019120B9CB
:104BD000144940F22D10FCF7F9FE019B23B911494D
:104BE0004FF49770FCF7F2FE019B9B6823B90D49C7
:104BF00040F22F10FCF7EAFE019B1B7B23B9094909
:104C00004FF49870FCF7E2FE686801A9FEF7C2F85D
:104C1000044618B901462846FFF716FF204603B0A0
:104C200030BD00BF39FC00002DE9F04186B00F46D1
:104C3000DDF8308016461D46044620B9194940F279
:104C40004F10FCF7C3FE26B916494FF4A870FCF7C5
:104C5000BDFE25B9134940F25110FCF7B7FE002301
:104C6000ADF8003001238DF8003001A90E4B0193FF
:104C70002046CDF808D003968DF810500597FFF721
:104C8000A3FF30B106B0BDE8F081B8F1000F00D04D
:104C9000C0479DF80030002BF7D19DF80100C0B24D
:104CA000F0E700BF39FC00004949000000234350F1
:104CB00082B043580193019B02B0704710B503685E
:104CC000292B044604D9074940F2CD10FCF77EFE9B
:104CD00023681F2B83BF03F01F03034823604FF09B
:104CE000A04010BD44E80000000300502DE9F04151
:104CF00004460E46154622B91D4940F2AB20FCF78A
:104D000065FE2F6827B91A494FF42E70FCF75EFE36
:104D100004EB4618C8F82075AF881FBB144940F251
:104D2000C120FCF753FEC8F82475AF68B7F1807F47
:104D300004D30F4940F2CB20FCF748FE4FEA461857
:104D400004EB4616C6F82875ED68B5F1807F04D3EC
:104D500007494FF43570FCF739FE4444C4F82C552C
:104D6000BDE8F0813B04DED5014940F2C220D8E71E
:104D70008DFC000038B51D4602230B710B684A718B
:104D800004467BB112F0040F0CBF82219221100760
:104D900048BF41F02001D306236848BF21F08001BD
:104DA000C3F8001320684FF48271FFF77FFF20687B
:104DB00012F0800F05BF012343514019002038BD78
:104DC0002DE9F04F044689B090460D4619B9644963
:104DD0008020FCF7FBFD2779624EFB00019306EB78
:104DE000C7031B79002B40F0B88046F8378005F1E7
:104DF000FF390DF1100805F1030A19F8012FFF2AF8
:104E000000F0A68022F0800B1306C8F800B003A8BB
:104E1000CDF80CB040F19480FFF750FF03990122C8
:104E20008A40C0F8082503A8CDF80CB0FFF746FF6C
:104E3000039B03F5E073032240F82320D14508F1DA
:104E40000408DAD12368049AC3F86025059AC3F8E8
:104E50006425069AC3F86825079AC3F86C25236869
:104E60000122C3F80025B5F90830D4F8008095F880
:104E700005B095F806A0B5F80890002B04DA3A4979
:104E80004FF42870FCF7A2FDC8F80CB5C8F804A5CB
:104E9000C8F8089523686A89C3F81025226800239A
:104EA000C2F800322268C2F8003320684FF48E71D5
:104EB000FFF7FCFE20684FF48871FFF7F7FE2068CB
:104EC0004FF48A71FFF7F2FE20684FF48271FFF70A
:104ED000EDFE56F837305BB32D792768072D4FEA82
:104EE000173847F3073703D920496B20FCF76EFDCD
:104EF000002FAEBF07F160431D4B08F00F084FEACB
:104F00004515A8BF03F56143EDB2B4BF03F80850DF
:104F100083F8005323681A0B43F30733002B07DB96
:104F200002F01F0101228A405B09124941F8232047
:104F3000019B1E4401233371002009B0BDE8F08FAE
:104F4000FFF7BCFE039901228A40C0F80C256AE7EE
:104F50004FF0FF33C8F8003070E70820EDE700BFDE
:104F6000CFFC00005C1500208DFC000046FB00001B
:104F700014ED00E000E100E02DE9F04115461E4689
:104F80000279244B03EBC208044698F804300F461C
:104F900023B921494FF48D70FCF718FD25B91E493E
:104FA00040F21B10FCF712FD3B6803F06043B3F1C5
:104FB000005F04D018494FF48E70FCF707FD20689D
:104FC0003A460021FFF792FE3A4620680121FFF79A
:104FD0008DFE226805F0010303EB5505C2F8145558
:104FE000F20715D416F0020203D0002B14BF0822DA
:104FF00004222168002BC1F800222046F2B241466B
:1050000018BF0C23BDE8F04108BF0823FFF7B2BE6C
:105010001022EEE75C150020CFFC000070B50D4CAF
:105020000379DE0004EBC30305461B7923B90A4963
:105030004FF4C870FCF7CAFC2968A2191379D1F89B
:105040000411DBB219B9981E18BF012070BD0120F0
:105050001071FBE75C150020CFFC000038B50F4B4A
:10506000027903EBC20304461B790D4623B90C49B0
:1050700040F27310FCF7AAFC2046FFF7CFFF50B9AF
:10508000236801225A602046FFF7C8FF18B9002D97
:10509000F9D1284638BD0125FBE700BF5C1500208B
:1050A000CFFC000010B52148D0F810315BB14FF4AF
:1050B0008871FFF7FBFD1E4B5A79510703D51B681A
:1050C0000BB1012098471948D0F814315BB14FF467
:1050D0008A71FFF7EBFD164B5A79120703D51B684F
:1050E0000BB1022098471148D0F81C315BB14FF446
:1050F0008E71FFF7DBFD0E4B587910F0100002D1D6
:105100001B6803B198470948D0F8043163B14FF4E4
:105110008271FFF7CBFD064B01221A711B681BB190
:10512000BDE810400320184710BD00BF00C001407B
:105130005C150020054B1B680D2B01BF044B186844
:10514000B0FA80F0400918BF00207047300100100D
:105150003401001008B5FFF7EDFF40B14FF0804378
:105160000022C3F80C21C3F81021C3F83825FFF73B
:10517000E1FF002846D04FF080524D4BD2F8041486
:10518000C3F82015D2F80814C3F82415D2F80C146B
:10519000C3F82815D2F81014C3F82C15D2F814143B
:1051A000C3F83015D2F81814C3F83415D2F81C140B
:1051B000C3F84015D2F82014C3F84415D2F82414CB
:1051C000C3F84815D2F82814C3F84C15D2F82C149B
:1051D000C3F85015D2F83014C3F85415D2F834146B
:1051E000C3F86015D2F83814C3F86415D2F83C142B
:1051F000C3F86815D2F84014C3F86C15D2F84424EB
:10520000C3F87025FFF796FF48B14FF08043D3F8FD
:105210000024D20744BF6FF00102C3F80024254ADE
:10522000D2F8883043F47003C2F88830BFF34F8F50
:10523000BFF36F8F4FF01023D3F80022002A03DB57
:10524000D3F80432002B2FDA1B4B0122C3F80425BC
:10525000D3F80024002AFBD04FF010221221C2F80C
:105260000012D3F80024002AFBD04FF010231222A2
:10527000C3F80422104B1A46D3F800140029FBD0BF
:105280000021C3F80415D2F80034002BFBD0BFF383
:105290004F8F0849094BCA6802F4E0621343CB60A0
:1052A000BFF34F8F00BFFDE7054B064A1A6008BDEC
:1052B00000C0004000ED00E000E001400400FA05FD
:1052C000AC0200200090D0030649074A074B9B1A06
:1052D00003DD043BC858D050FBDCFFF73BFFFAF777
:1052E000B3FF00002C02010000000020740C00201D
:1052F000FEE7FEE7FEE7FEE7FEE7FEE7FEE7FEE786
:10530000FEE7FEE70028B8BF4042704708B500211D
:10531000044604F025FA044B1868C36B03B19847A0
:10532000204608F03FF900BF24FE000070B50D4E86
:105330000D4D761BB61006D0002455F8043B013401
:105340009847A642F9D1094E094D761B09F06EFA2D
:10535000B61006D0002455F8043B01349847A64205
:10536000F9D170BD640C0020640C0020700C00208A
:10537000640C0020024B0146186800F00BB800BF17
:10538000B0020020024B0146186805F017BC00BFB0
:10539000B00200202DE9F04F01F10B05162D83B06E
:1053A000064624D8102900F2B78000F0C7FB10256C
:1053B00002211823DFF8F0844344A3F108025C685B
:1053C000944200F0B580636823F003032344D4E9DA
:1053D00002515A68E96042F0010230468D605A601D
:1053E00000F0B2FB0834204603B0BDE8F08F35F082
:1053F000070500F19180A94200F28E8000F09EFB2B
:10540000B5F5FC7FC0F090816B0A00F08C80042B16
:1054100000F26681AB0903F1390103F13807CB00D3
:10542000DFF884844344A3F108005C68A04206D1FD
:105430000CE0002A80F22281E468A04206D0636872
:1054400023F003035A1B0F2AF3DD3946D8F8104026
:10545000DFF858C4644577D0626822F00302531B1A
:105460000F2B00F36F81002BC8E904CC80F2608120
:10547000B2F5007F80F01081D3080133500901227A
:105480008240D8F8040058F83370A76008EBC30EC8
:105490000243AEF10800E060C8F8042048F8334049
:1054A000FC608B1001209840904254D8104206D1E5
:1054B00021F003014000104201F10401FAD008EB91
:1054C000C1094C468E46E768BC4207D114E1002B67
:1054D00080F21B81FF68BC4200F00E817A6822F0E6
:1054E0000302531B0F2BF2DDD7E902E4791945F0D3
:1054F00001057D6043F00105CEF80C403046C4F84C
:1055000008E0C8E90411C1E902CC4D60BB5000F0CD
:105510001BFB07F1080402E00C2333600024204643
:1055200003B0BDE8F08F4FF4007340213F2777E7C9
:10553000DC68A34208BF02317FF445AFD8F81040C1
:10554000DFF868C3644587D1D8F804208B100120A8
:1055500098409042AAD9D8F80840676827F0030716
:10556000BD4202D87B1B0F2B77DCDFF84493CA4B7C
:10557000D9F800201B6801322B4404EB070A00F025
:105580002E8103F580530F3323F47F6B2BF00F0B29
:105590005946304600F0F2FA411C024600F0EB801A
:1055A000824500F2E680BD4B1968594419600846EF
:1055B00000F04B81D9F80010019301311BBFA2EB21
:1055C0000A0A5044C9F80020186012F0070A00F0D7
:1055D0001481CAF108010A44CAF580519344083184
:1055E000A1EB0B01C1F30B0949463046009200F0D4
:1055F000C5FA421CDDE9002300F05C81801A00EB53
:10560000090B1968C8F808204BF0010049444445CB
:105610005060196000F026810F2F40F225816068EC
:105620000C3F27F0070700F0010004EB070C38439C
:105630004FF0050E0F2F6060CCE901EE00F24281C1
:1056400050681446964B1A688A4238BF1960954BC9
:105650001A688A4238BF196090E0621943F001036A
:1056600045F0010565603046C8F80820536000F039
:105670006BFA0834204603B0BDE8F08F2344E1689C
:105680005A68A56842F00102E96030468D605A60B0
:1056900000F05AFA083442E7B2F5206F4FEA52237D
:1056A00061D3142B00F2BA8003F15C00C0005B33BD
:1056B00008EB000758F80000083F874200F092808E
:1056C000436823F00303934202D980688742F7D1ED
:1056D000C768D8F80420C4E90207BC60C460E0E6EB
:1056E000142B59D9542B00F2A1802B0B03F16F011D
:1056F00003F16E07CB0093E60EF1010E1EF0030FCF
:1057000004F108047FF4DFAE51E03A443C465368AC
:10571000F96854F8085F43F0010353603046E960CC
:105720008D6000F011FAFAE6E90805F1080341E698
:1057300022443046536843F001035360083400F0BC
:1057400003FAECE6611943F0010745F001056560D5
:105750003046C8E90411C1E902CC4F60A35000F003
:10576000F3F90834DBE6930903F13900C00038335C
:105770009EE7444564D0D8F80840606820F0030BE9
:105780005D45ABEB050302D80F2B3FF766AF304604
:1057900000F0DAF90024C2E603F15C0103F15B07D3
:1057A000CB003DE659F808394B4540F0AA8011F08E
:1057B000030F01F1FF31F5D1D8F8043023EA0003DB
:1057C000C8F80430400098423FF6C5AE18B9C2E6AA
:1057D00040000EF1040E1842FAD071466FE603F154
:1057E000100BD5E69A104FF0010ED8F804300EFADF
:1057F00002F21A43C8F804206DE702EB0B0149429C
:10580000C1F30B0949463046009200F0B7F9431C3A
:10581000DDE900237FF4F2AED146F2E6542B26D820
:10582000130B03F16F00C0006E3341E7B3F5AA7F9D
:1058300026D8EB0B03F1780103F17707CB00EFE5F6
:10584000164B186858441860B4E6CAF30B0CBCF148
:10585000000F7FF4AFAED8F80840BB444BF0010016
:105860006060EFE61446EDE6012353608FE7B3F581
:10587000AA7F33D8D30B03F17800C000773317E742
:1058800040F25452934233D8AB0C03F17D0103F143
:105890007C07CB00C4E500BF9415002064150020F0
:1058A0008C15002090150020E0060020E80600205E
:1058B000E80A0020AAF1080AD344ABEB020B4FF030
:1058C00000099EE604F108013046009305F076F9E0
:1058D000D8F80840009B60681968B3E640F254505D
:1058E00083420AD8930C03F17D00C0007C33DFE6CD
:1058F0004FF47E737F217E2792E54FF47E707E23E6
:10590000D6E6D8F804305DE7032A70B412D940EA2D
:105910000105AD0704460B461ED11946204653F833
:10592000045B54F8046BAE4216D1043A032A2046B5
:105930001946F2D8561EA2B10139441E01E0C3181F
:105940000CD014F8015F11F8012F9542A6EB040367
:10595000F5D0A81A70BC7047561EEDE7184670BC0B
:1059600070471046F6E700BF844641EA000313F093
:1059700003036DD1403A41D351F8043B40F8043B56
:1059800051F8043B40F8043B51F8043B40F8043B19
:1059900051F8043B40F8043B51F8043B40F8043B09
:1059A00051F8043B40F8043B51F8043B40F8043BF9
:1059B00051F8043B40F8043B51F8043B40F8043BE9
:1059C00051F8043B40F8043B51F8043B40F8043BD9
:1059D00051F8043B40F8043B51F8043B40F8043BC9
:1059E00051F8043B40F8043B51F8043B40F8043BB9
:1059F00051F8043B40F8043B403ABDD2303211D359
:105A000051F8043B40F8043B51F8043B40F8043B98
:105A100051F8043B40F8043B51F8043B40F8043B88
:105A2000103AEDD20C3205D351F8043B40F8043B58
:105A3000043AF9D2043208D0D2071CBF11F8013B56
:105A400000F8013B01D30B8803806046704700BF1C
:105A5000082A13D38B078DD010F003038AD0C3F12B
:105A60000403D21ADB071CBF11F8013B00F8013B0D
:105A700080D331F8023B20F8023B7BE7043AD9D3CC
:105A8000013A11F8013B00F8013BF9D20B780370A1
:105A90004B7843708B78837060467047F0B486070C
:105AA00046D0541E002A3CD0CAB2034601E0013C55
:105AB00037D303F8012B9D07F9D1032C2AD9CDB296
:105AC00045EA05250F2C45EA054534D9A4F1100215
:105AD00022F00F0C03F120071609674403F11002AE
