:1000000000000220653700008D370000CD0D000094
:100010009137000093370000953700000000000082
:100020000000000000000000000000009737000002
:1000300099370000000000009B3700009D3700004A
:10004000612700009F3700001D23000009260000E3
:100050009F3700009F37000075210000C12300007A
:100060006D2500007D2500009F3700009F370000B0
:100070009F3700009F3700009F3700009F37000028
:100080009F370000B90800009F3700009F3700002D
:10009000550900009F3700009F3700009F37000080
:1000A0009F3700009F3700009F3700009104000039
:1000B000413500009F3700000000000000000000F4
:1000C0009F3700009F3700009F3700009F370000D8
:1000D0009F3700009F3700009F3700009F370000C8
:1000E0009F3700000000000000000000000000003A
:1000F000000000009F370000000000009F37000054
:1001000000000000000000000000000000000000EF
:1001100000000000000000000000000000000000DF
:1001200000000000000000000000000000000000CF
:1001300000000000000000000000000000000000BF
:1001400000000000000000000000000000000000AF
:10015000000000000000000000000000000000009F
:10016000000000000000000000000000000000008F
:10017000000000000000000000000000000000007F
:10018000000000000000000000000000000000006F
:10019000000000000000000000000000000000005F
:1001A000000000000000000000000000000000004F
:1001B000000000000000000000000000000000003F
:1001C000000000000000000000000000000000002F
:1001D000000000000000000000000000000000001F
:1001E000000000000000000000000000000000000F
:1001F00000000000000000000000000000000000FF
:1002000010B5054C237833B9044B13B10448AFF350
:1002100000800123237010BDE009002000000000D1
:10022000F4BF000008B5034B1BB103490348AFF30B
:10023000008008BD00000000E4090020F4BF0000B9
:10024000A3F5803A704700BF174B002B08BF134B34
:100250009D46FFF7F5FF00218B460F461348144AD1
:10026000121A03F035FE0E4B002B00D098470D4BB1
:10027000002B00D098470020002104000D000D48FD
:10028000002802D00C4805F015FF03F099FA200071
:10029000290000F09FF803F083FA00BF0000080077
:1002A000000000000000000000000220E009002023
:1002B000D8120020B56000007973000070B50446C4
:1002C00080B91348134E03F05FFE642546F0010623
:1002D0004FF47A40B047013DFAD10F4A1C210E205D
:1002E00000F0BEFA0D4A136813B92361146070BDA3
:1002F000E168D8688142F8D31A6912B1D0688142A6
:1003000002D81C612261F2E713461269F5E700BFCB
:1003100068A90000D0A90000AAA90000FC090020DB
:10032000014B1868704700BFFC090020024B186899
:1003300008B102691A607047FC09002010B5036813
:10034000292B044604D9074940F2CD1000F0DAFD0C
:1003500023681F2B83BF03F01F03034823604FF064
:10036000A04010BDD6A900000003005007B50190C1
:1003700001A8FFF7E3FF019B03F5E073032240F8B8
:10038000232003B05DF804FB07B5019001A8FFF737
:10039000D5FF019A01239340C0F8083503B05DF8FA
:1003A00004FB000007B5242301A80193FFF7C6FF53
:1003B000019AD0F81035D340DB074CBF03480448FE
:1003C00003F0E2FD03B05DF804FB00BF19AA0000D2
:1003D00025AA000007B51C4803F0D6FD1120FFF741
:1003E000C5FF0120FFF7C2FF0D20FFF7BFFF11205F
:1003F000FFF7CAFF0D20FFF7C7FF0120FFF7C4FF7B
:10040000242301A80193FFF799FF019B03F5E073F3
:10041000002440F8234000F0F9FB0C4A0C4801216D
:1004200000F03CFC22460B480B4C4FF4004100F01E
:1004300047FC44F001044FF47A754FF47A40A0472A
:10044000013DFAD1F7E700BF32AA0000A503000082
:1004500058AA0000000A002050AA000010B5044667
:1004600003689847237963B1084B01225A65D3F892
:100470005425A3681344E3602046BDE81040FFF70D
:100480001DBF2046BDE8104003F0C6B900B00140D2
:1004900038B50B4C0023C4F85431012572B6FFF770
:1004A00045FFFFF7DBFF62B6FFF73AFFC3686565FC
:1004B000D4F854259A42F1D2C4F8543538BD00BF5F
:1004C00000B0014010B50368292B044604D9074940
:1004D00040F2CD1000F016FD23681F2B83BF03F000
:1004E0001F03034823604FF0A04010BDD6A90000B1
:1004F0000003005007B5019001A8FFF7E3FF019A40
:1005000001239340C0F80C3503B05DF804FB07B538
:10051000019001A8FFF7D6FF019A01239340C0F88C
:10052000083503B05DF804FB38B5054D044645F0C9
:1005300001054FF47A40A847013CFAD138BD00BF0D
:10054000E0AA00002DE9F3413D4F3E4E052402256F
:1005500017F8013B019301A8FFF7B4FF019B03F5D6
:10056000E07340F8235001A816F8013B0193FFF710
:10057000A9FF019B03F5E073013C40F82350E7D14C
:10058000152501A80195FFF79DFF019B03F5E07379
:1005900040F2032640F82360132401A80194FFF7DA
:1005A00091FF019B03F5E07340F2031840F82360CC
:1005B0001C2601A80196FFF785FF019B03F5E07358
:1005C0001E2740F8238001A80197FFF77BFF019BBE
:1005D00003F5E07340F823802846FFF798FF204694
:1005E000FFF795FF3046FFF785FF3846FFF782FF9C
:1005F0001C20FFF77FFF1E20FFF77CFF4FF4FA70EF
:10060000FFF792FF1C20FFF782FF1E20FFF77FFFFE
:100610003220FFF789FF1C20FFF76CFF1E20FFF739
:1006200069FF4FF4FA70FFF77FFF1C20FFF76FFFA1
:100630001E20FFF76CFFFA20FFF776FFD8E700BF18
:10064000D9AA0000D4AA00007FB506460D4614467C
:1006500072B601F003FB01F047F90028FBD1134803
:1006600003F092FC44F201039E420AD044F20203DA
:100670009E4215D1228861680D4803F085FCFFF782
:1006800061FFA1680391084601F022FD23680195EE
:100690000093024663680399064803F075FCEEE791
:1006A0002946054803F070FCE9E700BF5CAA00009A
:1006B00075AA000090AA0000BAAA000008B5FFF7CA
:1006C00041FF704707B5044B0093044A402300F0F4
:1006D00077FF03B05DF804FB3D070000210A00200E
:1006E00030B5114D0FCD89B06C460FC495E80F00A1
:1006F00084E80F0006222823CDE900234FF0FF33C2
:10070000CDE9023309480A4B06930022694600F0FE
:1007100007FD18B1074A462100F0A2F8064B002257
:100720001A7009B030BD00BF48AB000000000020C7
:1007300000509D00E6AA0000200A002038B50E4BAC
:100740000E4D002018700E4804782D5DD2B21C4664
:1007500075B1043002F0DAFD18B10A4A562100F0F2
:100760007FF8094B1A7812B12378002BFBD038BDE3
:100770000C3002F087FAEFE7610A0020AC1200208B
:1007800000000020E6AA0000200A002008B5084862
:10079000084A0378D35C33B1043002F041FDBDE870
:1007A0000840FFF79DBF0C3002F00CFAF7E700BFDE
:1007B00000000020AC120020FFF792BF10B50848DF
:1007C000D4B20378074AD35C224623B1043002F046
:1007D0009DFD204610BD0C3002F054FAF9E700BF31
:1007E00000000020AC12002008B50948094A03782F
:1007F000D35C012243B1043002F002FE00280CBF9A
:1008000001204FF0FF3008BD0C3002F0ABFAF5E7E5
:1008100000000020AC12002038B50E4B1B680021F0
:10082000986803F0D7FB4FF40041002001F002F874
:1008300018B1094A142100F013F8084D00F022FF06
:100840000A2445F001054FF47A40A847013CFAD14B
:1008500038BD00BF2000002074AB0000D0AB00000A
:1008600000B583B002900091019244F201007146FC
:100870006A46FFF7E9FE03B000BD0000094A53785D
:1008800091780133DBB2994208BF00231178994275
:100890001FBF03705078182303FB002014BF0430DF
:1008A00000207047640A0020024B4FF43C6043F084
:1008B00001031847E0AB0000F8B51F491F4B0025A6
:1008C000C1F84051C1F84451C1F84851C1F84C51E8
:1008D000C1F80051C1F804511B684BB3D1F804456D
:1008E00017490968641A24F07F442F461A68A24207
:1008F00009D8A41A15441A7CDE691AB1D3E9052077
:100900001F749047AEB90F4A0F4B11781B788B427A
:1009100005D10133DBB2022B08BF0023137012781C
:100920000A4B43F822500A4B4FF48012C3F80021BF
:10093000F8BD3346DAE700BF00100140840B002009
:10094000800B00207D0B00207C0B0020740B00200E
:1009500000E100E02DE9F04FA14AA249137809789F
:10096000A14D994285B03CD00133DBB2022B08BFC8
:10097000002313709D4912789D4B0F6853F8220095
:100980003B1823F07F4300220B602B681646144669
:10099000944613B942B12B6006E0196881420ED922
:1009A00002B12B60091A196001272B68DFF848A2F1
:1009B00001934FF00008BEB9DFF844B262E0401A7C
:1009C0000C44D968D3F81CE0C3F800C031B13A191F
:1009D00022F07F42C3E90121DE611E4673460122F7
:1009E000D7E700263746E0E73446F6697F4A636872
:1009F0001268DFF810C2A068991A21F07F416145A2
:100A000000F2A88001442160012222742A68002398
:100A1000C4E90133E361002A40F0A5802C60CAE7F5
:100A20009BF802105A1CD2B291428BF8002004BFEE
:100A300000228BF80020182202FB03B32A681979E0
:100A40009C68022977D0032900F08180012919D1FF
:100A5000207CB8B9D96861601A69A2605A69E260FD
:100A60009B69A361634B1B78002B18BF0146616033
:100A7000BCE78C4200F091808946C9690029F8D111
:100A8000002323749BF800309BF801209A42C7D1C1
:100A90002B68B8F1000F04D1019A9A4201D1002FBE
:100AA00043D0002B41D0D3F800A0534D4F4BD5F885
:100AB00004751C68DFF850813E1B98F8003026F062
:100AC0007F4603369BB94FF48033C5F84433C5F8ED
:100AD00004334A4B4FF40032C3F880211A604FF0C0
:100AE0000109C5F80090FFF7DFFE88F80090B245D5
:100AF0002CBF5444A41924F07F44C5F84045D5F8D0
:100B00000435DB1B23F07F43E41B033324F07F44D5
:100B1000A3420AD9D5F80435C5F84035FFF7C4FE1D
:100B2000364B4FF40032C3F80021324B00221A70CA
:100B300005B0BDE8F08F114691469FE71174D26968
:100B40000123002AFAD1002B9CD02A609AE70023C7
:100B50001946F6E7D31A23F07F43834234BFC31A02
:100B60000023236050E721681368994213D8591A6B
:100B70001160E26152E7091AD8691A4638B1034692
:100B800018688842F7D3401A186018461346216047
:100B9000E061DC610FE71346F2E74C4511D1D36900
:100BA0002B6073B9DFF844E00120CDE90212CAF8E6
:100BB0000800CEF800300F4B1870FFF775FEDDE926
:100BC00002120B68C969C9F81C1011B10868034406
:100BD0000B602B68934218BF4FF0010850E700BF2D
:100BE0007C0B00207D0B0020840B0020800B00205C
:100BF000740B0020700B00200010014000E100E0A9
:100C0000640A0020FEFF7F00710B0020F8B51B4E28
:100C10004FF40033C6F88030BFF34F8FBFF36F8FB0
:100C2000174D184F4FF480330124C5F84833C5F8E9
:100C300008336C60FFF738FEAC6000243C60FFF7BF
:100C400033FE114B1C70114B0B221C809A70104B01
:100C50001C60104B1C70104B4FF480121C70E02372
:100C6000C6F8802186F814333260C5F8084586F846
:100C70001133D5F804353B602046F8BD00E100E0B3
:100C800000100140800B0020710B0020640A00203E
:100C9000840B00207C0B00207D0B0020074B9B78F1
:100CA0004BB132B128B10368187C20B959745A612C
:100CB0007047072070470820704700BF640A002073
:100CC0002DE9F3411D4FBB7804460D4616469BB3F4
:100CD00090B31B4B4A1F9A422CD8436963B3437CA1
:100CE0000020012B0CBF88464FF0000800F04EF8A2
:100CF0000DF10700FFF7C2FDD0B101230370114BC6
:100D00004460D3F80435C0E90486C0E902359DF893
:100D100007307B700024002000F048F824B90A4B0B
:100D20004FF48012C3F80021204602B0BDE8F081E4
:100D30000424F0E70724F7E70824F5E7640A002015
:100D4000FAFFFF000010014000E100E072B6024A25
:100D50001368013313607047880B0020034A13683F
:100D6000013B136003B962B6704700BF880B0020D7
:100D7000EFF30583C3F308032BB9EFF31480C043EB
:100D800000F00100704701207047000008B5FFF730
:100D9000EFFF012803D00449432000F0B3F8BDE879
:100DA0000840FFF7D3BF00BFE6AB000008B5FFF770
:100DB000DFFF012803D00449512000F0A3F8BDE86B
:100DC0000840FFF7CBBF00BFE6AB00001EF0040FEA
:100DD0001CBFEFF309800AE0EFF308800549064ADB
:100DE000884201D8904202D88D464FF00000034B54
:100DF000184700000000022000E00120010E000062
:100E00002DE9F347054600F029FF00F06DFD0028AD
:100E1000FBD12F4C2F48304B241AE40824049F6A3E
:100E200044F00104002D4ED0AA692C49204600F060
:100E3000C7FEEB680193AB68294900932046D5E9CA
:100E4000002300F0D2FEEB6900932649D5E9042384
:100E5000204600F0BEFE204BDB6A980703D52249EE
:100E6000204600F0A9FEDFF89490DFF894A0002659
:100E70004FF0010808FA06F33B4206D059F8262045
:100E80001AB15146204600F09BFE01361A2EF1D1D0
:100E9000390605D5104B15495A6B204600F090FED7
:100EA0003A0405D50C4B12499A6B204600F088FE97
:100EB000104B1B68DB0700D500BE2846FFF7FEFB82
:100EC00002B0BDE8F0870C49204600F075FEC2E78D
:100ED00050C00000F8BF000000ED00E03BAC000097
:100EE00050AC000085AC0000E0AC00002FAD00006D
:100EF0004FAD0000F0ED00E0ADAC00002CB2000002
:100F000024AD000007B5ADF8000001916A4600214C
:100F100044F20200FFF798FB03B05DF804FB10B544
:100F2000034653E8000F0A4643E8002494F0000FFC
:100F3000F7D110BD10B5034653E8002F42EA010077
:100F400043E8000494F0000FF6D110BD10B503463D
:100F500053E8000F00EA010243E8002494F0000F78
:100F6000F6D110BD10B5034653E8002F02EB010087
:100F700043E8000494F0000FF6D110BD10B503460D
:100F800053E8002FA2EB010043E8000494F0000FA7
:100F9000F6D110BD0121FFF7CDBF0021FFF7D6BF6D
:100FA00010B50446002834D003681BB91A49FF2045
:100FB000FFF7A8FF636823B917494FF48070FFF764
:100FC000A1FFA36823B9144940F20110FFF79AFF6B
:100FD000E36823B910494FF48170FFF793FF238A28
:100FE00023B90D4940F20310FFF78CFFD4E9012328
:100FF00021689B1ADBB20A60013BDBB2FF2B22683F
:1010000002D10020107110BD1168481C10600B70D7
:10101000F2E70E20F7E700BF94B2000038B50446AF
:1010200020B912494FF49270FFF76CFF0020FFF7D0
:10103000ADFE2268616813688B4215D9591E116094
:1010400013F8015C228AE36802FB05352268A36875
:1010500011685B1A1179DBB2994200D2137100203A
:10106000FFF7A4FE284638BD0025F8E794B200003B
:1010700038B50C46054620B90E4940F24710FFF737
:1010800041FF24B90B494FF4A470FFF73BFF002048
:10109000FFF77CFE2A681368591C1160E968641A1E
:1010A000298AB4FBF1F41C70BDE838400020FFF73A
:1010B0007DBE00BF94B200001FB503788DF80030EC
:1010C0004368019383688DF80830C368054A039329
:1010D000054B684653F8213052F82110984705B067
:1010E0005DF804FB8C0B0020940B00201FB50378E7
:1010F0008DF800304368019383688DF80830C36829
:10110000054A0393054B684653F8213052F82110E5
:10111000984705B05DF804FB8C0B0020940B002071
:10112000F0B5194B90F800C0DFF86CE043F82C20C4
:10113000164B16460A6943F82C204B7F0EF80C30EC
:101140000C4607460FCC89B06D460FC594E80F00DA
:1011500085E80F003B78CDF810C01EF803304BB186
:10116000002E0B4A694608BF3246381D01F05CFF6D
:1011700009B0F0BD002E074A694608BF324607F1A4
:101180000C0001F02DFCF3E7940B00208C0B0020E9
:10119000B9100000ED100000AC12002010B504469C
:1011A00018B906493120FFF7ADFEA2682AB163697C
:1011B0002168206998470023A36010BDE4B20000B5
:1011C0000EB433B5059D044618B911494220FFF706
:1011D00099FE63691BB90E494320FFF793FE23680C
:1011E0001BB90B494420FFF78DFE63681BB9084902
:1011F0004520FFF787FE35B106AB01AA29462046F8
:10120000019300F071F802B0BDE8304003B07047C0
:10121000E4B20000826830B40468551C8560A154B3
:10122000D0E901329A4202D330BCFFF7B7BF30BCDD
:10123000704700002DE9F84F9846DDE90A4315464E
:1012400082460F460A464FF00109AA420FD2C14515
:1012500038BFC14613F0010B01D16CB9002401263F
:10126000B8F1010F1BD908F1FF386E43F8E709F117
:101270000109B2FBF5F2E8E79B070ED5B8F1000FC4
:101280000CBF30262026A145E9D2013C314650460C
:10129000FFF7C0FF002CF6D1E0E72026F3E7B7FB0D
:1012A000F6F39D42E1D9DFF83C80B7FBF6F35046F8
:1012B00018F8031006FB1377FFF7ACFF3346AB4279
:1012C000B6FBF5F6F1D2BBF1000F02D00CB1A1458F
:1012D00001D3BDE8F88F20215046013CFFF79AFF6B
:1012E000F4E700BF77B300002DE9F74F88461746B3
:1012F000054620B9B14940F25220FFF703FE6B6961
:1013000023B9AE494FF41570FFF7FCFD2B6823B9E4
:10131000AA4940F25520FFF7F5FD6B6823B9A749AC
:1013200040F25620FFF7EEFDB8F1000F00F04281C9
:1013300018F8011B49B92B7B002B00F03B81284694
:1013400003B0BDE8F04FFFF729BF252940F0B78073
:10135000002698F800302D2B424608F1010823D0D2
:10136000302B24D02B2B25D000242A2B02F1010175
:1013700023D13B681A1D3A601B680A461C44137847
:101380002E2B26D101324FF0000A104610F8011B17
:10139000A1F1300CBCF1090F1DD80A2303FB0A137D
:1013A000A3F1300A0246F0E746F00106D1E746F025
:1013B0000206CEE746F00406CBE711F8013CA3F1A4
:1013C00030000928DBD80A2202FB0434303C0A46EC
:1013D000CBE74FF0000A12F8011B01F0FB00682870
:1013E0009046F8D0782909D86F290CD8632962D0A3
:1013F00022D8252963D0582900F0888098F8003039
:10140000002B95D197E770390829F7D801A353F835
:1014100021F000BF8F150000FD130000FD13000038
:101420001D150000FD130000FB140000FD1300005B
:10143000FD1300000D150000642901D06929DDD1DC
:101440003A68111D3960D2F8009089EAE972A2EB7E
:10145000E9724FF0010B092A35DCD34538BFD3467A
:101460002CB1B9F1000F01DB720700D5013CB307C5
:1014700002D5BAF1000F03D0F00701D44CBB002411
:10148000B9F1000F2DDAC9F100092D212846FFF727
:10149000C1FE06F00302022A04D1BAF1000F01D105
:1014A0001CBB0024CDE9004653460A224946284683
:1014B000FFF7C0FEA2E73B681A1D3A60197828467C
:1014C000FFF7A8FE9AE70A230BF1010BB2FBF3F238
:1014D000C1E7A345D4D220212846013CFFF79AFE5C
:1014E000CCE77107D5D52B21D0E7A345DAD230213F
:1014F0002846013CFFF78EFED2E73968CDE9004669
:101500000A1D3A6053460A220968D0E739680A1D65
:101510003A60CDE9004653461022F5E73B681A1DB4
:101520003A6016F00106D3F8009028D1B9F1000F07
:1015300003D0484602F044FE0646B44200D904BB3C
:1015400009F1FF3919F8011F00293FF457AF284668
:10155000FFF760FEF6E728460136FFF75BFE19F855
:1015600006100029F7D1A642BFF448AF002C3FF483
:1015700045AF20212846013CFFF74CFEF3E700264B
:10158000EDE720212846013CFFF744FED5E73B6804
:101590001A1D3A60302128461C68FFF73BFE78216F
:1015A0002846FFF737FE00220823CDE90032214606
:1015B00010227CE703B0BDE8F08F00BF2AB3000023
:1015C000F0B595B01D46164608460C4600F019FDCC
:1015D0001A9B0D93CDE9086500252B46082205A925
:1015E00020460A958DF82C500C9500F031FD079B94
:1015F0000293069B03939DF814308DF8115003F06D
:101600000302012A1DD1BDF81420059DC3F3C203B6
:10161000C2F383168DF81030B20008230EA92046BD
:1016200000F016FDC5F3952508AB0093324602ABDA
:101630000EA9284600F088FB204600F0E6FC15B015
:10164000F0BD022AF8D1BDF81650C3F3C203C5F3AA
:1016500089158DF810300827082D2E4628BF08263A
:101660003B4632460EA9204600F0F2FCAD1B08AB0B
:1016700002AA31460EA8374400F0CAFB002DEBD178
:10168000DAE7000008B5FFF797F80748042100F0F3
:10169000BBFA002803DA05494820FFF733FC044B66
:1016A00001225A7108BD00BF74C0000087B300005A
:1016B00014000020037813F0040216D003F0030393
:1016C000012B03D0022B09D0012070470A68008843
:1016D0000232C0F3831002440A60F5E70B684288C7
:1016E000023303EB92130B60EEE7104670470000E5
:1016F0002DE9F04F044687B0861C00200F461546A2
:10170000FFF744FB494801683960D0E901321344CE
:1017100001335B1A824600F21C4700F5836900F230
:101720001448B3421BD30020002D7AD004F00F03DD
:101730009B0143F0050363F30F00DAF80020DAF8A9
:1017400008301340033316444AF823000020CAF837
:101750000060FFF72BFB012007B0BDE8F08F0121EF
:101760003846FFF7FFFB4846FFF714FC4046FFF7FB
:1017700011FCDAF80400DAF808B0029000EA0B0075
:1017800003300AEB800002A9FFF794FF029B024698
:10179000F8B90BEA03010AEB810103F1020CC868F6
:1017A0000390013303EA0B0B0AEB8B0B00F00300F1
:1017B0000128DBF80C10CDF808C02AD002280BD085
:1017C0001B4901924FF4BF70FFF79CFB019A9346AF
:1017D0000CE00BEA0300D3E7BDF80E30C3F3891326
:1017E00003334FEA114B0CEB930302934046FFF790
:1017F000D4FB10B1029BCAF8043059463846FFF7B3
:10180000B1FBDAE901231344DAF8002001339B1A13
:1018100087E7BDF80C30C3F383134FEA114B6344E1
:10182000E3E7A40544F0060087E700BF6C0C002046
:10183000F7B300000B4B0C48FF2210B59A60002252
:10184000C3F81824C3E90022C3F81424012283F842
:10185000202400F08FFB044610B9044800F00CFC73
:10186000204610BD6C0C002060C0000064B4000075
:1018700030B50A4C71B10A4A0A49121BD20800233A
:101880009A4201D1002030BD31F82350854202D068
:101890000133F5E7034654F83300F4E7F8BF0000DE
:1018A00060C00000E0090020094B013903EBC000D3
:1018B000032909D8DFE801F00A0204060420704772
:1018C00000797047407970470020704702207047C8
:1018D000F8BF0000034BD3E90030C31A5842584107
:1018E000704700BF6C0C00202DE9F04385B0FFF776
:1018F000F1FF0646002840F0F5807B4DC5F818043E
:10190000BFF34F8F6B68AC6800932340033305EB44
:1019100083006946FFF7CEFE009B18B1D5F8182466
:10192000002A5FD004EA0302991C013305EB82020E
:10193000234005EB8303D268DB68029302F00303C4
:10194000022B0192009160D1BDF806306748C3F3C5
:101950008917502FB84628BF4FF0500868F38F13EF
:1019600008F10801ADF8063000F01CFB064600281F
:1019700000F0A38000F045FB0023082201A93046B7
:1019800000F052FB009924EA01020132B8EB820F09
:101990004FEA820332D95FFA88F85BB32140DCB2A8
:1019A000A8EB040803315FFA88F9A046504C05EB18
:1019B000810108234246304600F036FB34B108F17D
:1019C00008034A462146304600F02EFB009B0337B1
:1019D00003EB97070097D5F81834002B49D1D5F8B9
:1019E000104459E02A689A428FD86A60304605B0A0
:1019F000BDE8F0833E491C469946DAE70C40E11CFD
:101A00000823424605EB8101DDE7012B55D1BDF8E6
:101A100004303648C3F38311062928BF062161F339
:101A2000891302318900ADF8043000F0BBFA064694
:101A3000002842D000F0E5FA0023082201A9304630
:101A400000F0F2FA0027BDF80420C2F38312BB00B5
:101A5000974203F10803BED200994A1C214003318A
:101A6000009205EB81010422304600F0DDFA0137D7
:101A7000E9E7304600F0C9FAFFF72CFF80F00100DB
:101A8000C6B2B3E7E3685B7923B1236831461B68CC
:101A900020469847E3681C68002CF3D1304600F0DC
:101AA000B4FA2046FFF772F9D5F818340BB9009B49
:101AB0006B600020FFF77AF9DEE7D5F8104454B9DF
:101AC0000C4B0D480D49C01AC008000440F002003C
:101AD00000F072F8D0E7236820469B689847E368D7
:101AE0001C68ECE7002681E76C0C002060C0000059
:101AF000780C0020F8BF000040C000004EB4000089
:101B00002DE9F74F274D04460F46914601A90122C2
:101B10001846D5F808A09846FFF7EAFD78B3019E6D
:101B20000023B01C434503EB000132D100211E48C5
:101B3000FFF7F5F94FEA144980F3100B1B4B1C4AD1
:101B40009B1AB9EBD30F04D31A4940F2A310FFF745
:101B5000D9F9731C03EA0A03E40005EB830304F0DC
:101B6000380449EA0B4006EA0A0644F00104D8604A
:101B7000033644EA881343EA872345F8263095F86C
:101B800020341BB1FFF7B0FE0028FBD103B0BDE845
:101B9000F08F0AEA010105EB810159F82320CA60A0
:101BA0000133BFE76C0C00208810002060C00000EB
:101BB000F8BF0000F7B3000000231A46FFF7A0BFEC
:101BC00007B50123019201AAFFF79AFF03B05DF860
:101BD00004FB1FB5CDE90123069B039301AA032350
:101BE000FFF78EFF05B05DF804FB1FB5CDE90023BC
:101BF000069B0293079B03936A460423FFF780FF2B
:101C000005B05DF804FB000030B5134AD2F810446B
:101C100003460020214649B9DC682071D2F81044FF
:101C200054B9C2F81034DB68196030BDC9680D7949
:101C300085420AD00968EEE7E468D96824680C6038
:101C4000D2F81024D2681360EFE701300A28E1D1FE
:101C50004FF0FF30E9E700BF6C0C002038B5094AAF
:101C60000123D2F8104482F820341D4604B938BD4F
:101C7000E3685D71236820465B689847E3681C68E9
:101C8000F4E700BF6C0C002007B503460846197A3C
:101C9000052911D05B7A2BB1094A0A490190FFF757
:101CA0008FFA019808490190FFF78AFA019803B06A
:101CB0005DF804EBFFF772BA002AF8D0F2E700BF34
:101CC00070B4000075B4000095B4000030B5C3884E
:101CD00085B004460D4633B1144A00921449154AA2
:101CE0002846FFF76DFA217A05291DD0637A4BB19A
:101CF000A088FFF7D9FD104B104953F82020284643
:101D0000FFF75EFA227A0E4BA08853F82220039246
:101D10000021FFF7ADFD039A0A490346284605B0A6
:101D2000BDE83040FFF74CBA05B030BD70B40000DC
:101D300080B4000078B40000FCB4000075B400006A
:101D400020B5000098B400002DE9F04385B01F468F
:101D50000C9D002395F80C902B7306460C4690467C
:101D600029463846FFF7B2FFB8F1060F09D8DFE879
:101D700008F00412181F2833400031462846FFF7A8
:101D80001FFA002229463846FFF77EFF85F80C909F
:101D900005B0BDE8F083226831462846FFF710FA07
:101DA000EFE7D4E9002331462846FFF709FAE8E7D0
:101DB000A36800933146D4E900232846FFF700FAD0
:101DC000DFE7E3680193A36800933146D4E9002379
:101DD0002846FFF7F5F9D4E723690293E3680193F6
:101DE000A36800933146D4E900232846FFF7E8F9B9
:101DF000C7E76369039323690293E3680193A368C8
:101E000000933146D4E900232846FFF7D9F9B8E713
:101E100008292DE9F84F80460E4617461C463BD848
:101E2000002593F80C901D7319461046FFF74EFFDE
:101E3000DFF88CA0DFF88CB0AE422FD918F805205F
:101E400059462046FFF7BCF90135082DF4D1194950
:101E5000194DDFF874A02046FFF7B2F94FF0000BE0
:101E60005E4522D918F80B207E2A1CD8134BD15C72
:101E700011F0970F08BF2E2251462046FFF7A0F918
:101E80000BF1010BBBF1080FEAD1012221463846C4
:101E9000FFF7FAFE84F80C90BDE8F88F5146204613
:101EA000FFF78EF9D0E72E22E6E729462046FFF716
:101EB00087F9E5E7ACB40000AAB40000FDBB000060
:101EC000A8B40000A2B40000AEB400002DE9F74FA2
:101ED00099469DF83030009388469346064618B9D7
:101EE0002349B620FFF70EF8F18872794A43043A85
:101EF0004A4505D81E490192C420FFF703F8019A0C
:101F0000DBF80070B6F806A007EB0901914209F171
:101F1000040488BFA2EB0907B4FBFAF5CBF8007004
:101F20000AFB154445B9AAEB040BBB4528BFBB46C9
:101F30002FB903B0BDE8F08F3668013DF2E7009B92
:101F4000043408EB050034445A466BB12146A7EB34
:101F50000B0701F023FFBA455D443668D3464FF0C6
:101F6000000428BFBB46E3E701462046EFE700BF79
:101F70003DB50000FFF714B8F8B546790146721E6A
:101F80000546002393422D6803D30024A64202D8BD
:101F9000F8BD0133F6E70F682846FFF769F801340A
:101FA0003946F3E72DE9F843CD1C068A0746FFF7CB
:101FB00035F8043E35440446B5FBF6F5F0B14FF470
:101FC0008073EDB28380C680013D076081464FF08B
:101FD0000008A84512D23846FFF720F8064648B157
:101FE00063790133637108F10108C9F800000760E3
:101FF0008146EEE72046FFF7BFFF34462046BDE8A6
:10200000F88301210430FEF7ADBF10B5012104466D
:102010000430FEF7B3FF10F0FF0F04D12046BDE8F7
:102020001040FFF7A9BF10BD1FB514460392002250
:10203000009203AAFFF74AFF039BA34203D0034980
:10204000F620FEF75FFF04B010BD00BF3DB50000F5
:102050001FB5144603920122009203AAFFF736FF30
:10206000039BA34204D003494FF48070FEF74AFF5C
:1020700004B010BD3DB50000826800239360826803
:102080001361826853618268D3608268536082689A
:102090001360704710B50D49A1F58C72914201D8BB
:1020A00000200FE08C1AE30F03EBE4035B1002EB5C
:1020B000C30452F83330834205D802D204F1080237
:1020C000ECE7606810BD2146E8E700BF4CBA0000AD
:1020D00008B5FFF7DFFF024B002808BF184608BD10
:1020E0001EB9000000F1804000F5C040002382B01E
:1020F000036003680193019B02B0704710B5036849
:10210000292B044604D9074940F2CD10FEF7FAFE08
:1021100023681F2B83BF03F01F03034823604FF086
:10212000A04010BDD6A900000003005013B50190D7
:1021300001A80C46FFF7E2FF019B00EB8300D0F8FB
:10214000003723F44033C0F80037D0F8003743EAB3
:102150000443C0F8003702B010BD00004FF0A043A8
:10216000D3F810350360024BD3F810354360704745
:10217000000300502DE9F04F00248BB0CDE902445C
:10218000624D4FF48072012102F1804303F5C04398
:1021900090B21B68012B06D1D5F804330B4202D054
:1021A000FFF7A0FF0C430432B2F5907F4FEA4101E4
:1021B000EAD1574B1B68012B08D14FF4BE70FFF7D3
:1021C00091FF02A844F00044FFF7C8FF14F0FF0F8E
:1021D0001AD0504F00250126344210D0AB0003F135
:1021E000804303F5C043D3F81005D3F8101557F812
:1021F000253023B1C1F30141C0F3052098470135D3
:10220000082D4FEA4606E7D1002C7BDA04AF002305
:1022100004937B604FF0FF33CDE90633DFF8F49091
:102220003D4B009300263546009A12F9013B00927F
:102230005A1C51D0C3F3C2000121DAB203F03F0BA4
:1022400003F0070301FA03F40AAB191811F8103C64
:10225000234241D04FEA921A09EB0B0292F9302047
:1022600059F82280B8F1000F09D1BAF1030F33D128
:1022700017F800C04CEA040C07F800C002E0BAF1FD
:10228000030FF5D008A80191CDF820B0FFF736FF75
:10229000089B019903F5E07C11F8201C50F82C00F4
:1022A0002142C0F3014006D0022815D1BAF1030F34
:1022B0000CD1514605E003280ED1BAF1030F05D128
:1022C00002215846FFF732FF0135EDB2B8F1000F99
:1022D00002D051465846C0470136042EA4D18DB1D4
:1022E00008A8FFF73BFF029B089A9A42099B02D17C
:1022F00003998B4206D002920393049A059B06929F
:1023000007938DE70BB0BDE8F08F00BF0060004081
:102310007C610040281100208211002010B5054C7E
:1023200022681AB904495120FEF7ECFD2368BDE884
:10233000104018479011002059BA000038B50D46DA
:1023400028B90C497720FEF7DDFD002038BD0A4B87
:102350009842FAD10020FEF719FD084B1C7914B9F8
:1023600001221D601A710020FEF720FD002CECD028
:102370001120EBE759BA0000002000409011002026
:1023800018B906499B20FEF7BDBD054B984201BF19
:10239000044B00221A601A71704700BF59BA00003E
:1023A000002000409011002000F1804000F5E04046
:1023B000002382B0036003680193019B02B0704761
:1023C000F0B5504B504C1B6885B0002B3DD04FF4FE
:1023D000827094F82E20FFF7E7FF2AB394F82F308D
:1023E00013BB4A4B1B68002B33D04FF48070FFF7B0
:1023F000DBFF638B94F82D108B424FD922895B1A37
:102400009BB292B26383D31A626802EB4303404AE1
:10241000C2F82C36C2F830164FF48270FFF7C4FFB2
:102420003C4B01221A6014E0636802932389ADF8E3
:102430000C30E36800218DF8041023BB237423685B
:1024400001A89847002384F82F3094F82E30002BF1
:10245000C7D1314B1B685BB14FF48870FFF7A4FF05
:102460000023237402238DF8043001A823689847C1
:102470002A4B1B68EBB14FF48A70FFF795FF0023DE
:10248000237405B0F0BD208B608363602081E16020
:10249000002AD4D11E4B01221A60D0E7BCD1E368D8
:1024A000012284F82F2013B100226283AFE76383F7
:1024B000B2E766694FF000470125002EE1D0B6FA79
:1024C00086F227FA02F34632920026EA030602F168
:1024D000804303F5E0431B68002BEED01046FFF766
:1024E00063FFA2F58C72D30882F00402C2F380026B
:1024F0008DF808308DF8045023688DF8092001A864
:102500009847DAE7047100409811002000710040FC
:1025100000700040047000401071004014710040D1
:102520002DE9F743002406460F4600F5A0754FF449
:102530008038A1462B688BB1D6F8043308FA04F230
:102540001A420BD0C5F800902B680193019BA300A1
:1025500003F5A07398B2D7E9003198470134042CF1
:1025600005F10405E6D103B0BDE8F0830149024856
:10257000FFF7D6BFC8110020008000400149024883
:10258000FFF7CEBFD411002000900040002343503D
:1025900082B043580193019B02B070470B7B032B21
:1025A0002DD8DFE803F025291D028A68154B9A42D1
:1025B00004D1D0F84C350A699A4209D18A6840F2B0
:1025C00002239A421BD1D0F84C354A699A4216D060
:1025D00000230622C0F80035C0F8002518467047D1
:1025E000D0F84C350A699A42F2D1D0F83C35ECE784
:1025F000D0F84C350A69E9E7D0F83C35FAE7012014
:10260000704700BF00020400F0B5504C236887B04B
:1026100023B94F4940F28620FEF774FC4D48D0F8AC
:1026200024310546ABB14FF49271FFF7AFFFD0F8FC
:10263000043173B9A368C0F808330223A360A36808
:10264000C0F8043301230362436184F82E3007B0DD
:10265000F0BDD5F80431002B42D03F4D3D484FF43A
:102660008271FFF793FF0FCD01AE0FC62B68336069
:1026700094F82E3043B93748A5F11C01FFF78EFFBF
:1026800080F0010084F82E0032484FF4B071FFF75B
:102690007DFF30484FF4AE71FFF778FF94F830308B
:1026A00013B194F82E303BB12A4B0022C3F800221C
:1026B000A2602A4AC3F80823264AD2F8C434C2F8D2
:1026C000C4349A0736D501238DF8003094F83030A1
:1026D0000BB984F82F30D4E9003168469847B6E743
:1026E0001C484FF4A471FFF751FF237B83B91A4FA5
:1026F0000FCF01AE0FC63B68336094F83030002B2B
:10270000DAD1C5F80032A360144BC5F80833D3E71B
:102710004FF40073C5F8003240F20223A36003F1C6
:10272000CE73C5F80833A368C5F804330123AB6042
:102730002B628CE713F0050F01D00223C4E794F855
:102740002E30002BC0D00423BEE700BFE0110020D4
:10275000B8BA000000300040EC11002002029C01D9
:1027600007B5134B1A6862B1002018601B6800930C
:10277000009B4FF080430122C3F808230D4B1B68D8
:1027800098470D4B1A6882B100221A601B680193AA
:10279000019B4FF080430222C3F80823054B1B68BE
:1027A000012003B05DF804EB184703B05DF804FBAB
:1027B0000001004014120020040100400023435097
:1027C00082B043580193019B02B070470A4610B58E
:1027D0004FF48E71FFF7F2FF136A9168C95C136AB8
:1027E00001331362C0F81C1510BD000010B503685A
:1027F000292B044604D9074940F2CD10FEF782FB8D
:1028000023681F2B83BF03F01F03034823604FF08F
:10281000A04010BDD6A900000003005007B50190EC
:1028200001A8FFF7E3FF019B03F5E073022240F8E4
:10283000232003B05DF804FB08B502464FF4927103
:102840000068FFF7BBFF4FF484711068FFF7B6FF15
:10285000136801221A6008BD10B58B690A464FF44F
:10286000847123B9FFF7AAFFD0F8183510BDFFF720
:10287000A5FF536AD168D0F81805C854536A0133CC
:102880005362F3E71FB501238DF80030044BCDE907
:102890000110D3E900126846904705B05DF804FBCB
:1028A0001C12002030B54C48D0F8043313F4007FDC
:1028B00085B005464DD0D0F82431002B49D04FF4D7
:1028C0009271FFF77BFF4FF40173C0F80833434B5D
:1028D00093F829200AB9012242603F4902228DF86B
:1028E0000020D1F88024C1F8802403929A690292D2
:1028F000DA6801920022C3E906226846D3E9001291
:1029000090473548D0F81C315BB134494A690B6AAD
:102910009A420A464BD991F82830002B47D1FFF74D
:1029200055FF2D48D0F844318BB14FF4A271FFF719
:1029300045FF2A4B93F829200AB1012202609A69C7
:102940002AB10022586AD9689A61FFF79BFF05B047
:1029500030BDD5F804335B07D3D5D5F80831002B4B
:10296000CFD01E4C1C482146FFF776FF636AA26950
:102970009A422346C5D1E26952B12369E168E36016
:102980000023606AA261E3616362FFF77BFFB8E73F
:1029900094F829200AB901226A600F4A4FF40171A4
:1029A000C2F808130022586AD9689A61EDE70A480C
:1029B0004FF48E71FFF702FF5369002BB1D05169BC
:1029C0000291002391688DF80030019153616846AF
:1029D000D2E900139847A4E7002000401C12002011
:1029E0002DE9F347054691460C4619B96E49AA20D0
:1029F000FEF788FA6D4B2E792C2202FB06329846A0
:102A000092F82A20002A40F0CA8069492868FFF716
:102A100095FC0746002840F0C48023685A1C14D057
:102A200001A80193FFF7E2FE019B012202FA03F3E2
:102A3000C0F808352368019301A8FFF7D7FE019B72
:102A400003F5E073032240F823206368581C09D083
:102A500001A80193FFF7CAFE019B03F5E073002272
:102A600040F823202B68A269C3F82425217D637DCB
:102A70002A680B43C2F86C35D4E900122B68C3F8FE
:102A80001425C3F80C15237D012B2BD1A368591CE9
:102A900009D001A80193FFF7A9FE019B03F5E0739C
:102AA000002240F82320E3685A1C14D001A80193A7
:102AB000FFF79CFE019B012202FA03F3C0F80835E0
:102AC000E368019301A8FFF791FE019B03F5E07312
:102AD000032240F82320D4E902122B68C3F808250A
:102AE000C3F810152C23734308EB0302C2F80490BB
:102AF000226948F80320B9F1000F3CD0286894F807
:102B00001C904FF48E71FFF759FE28684FF4A271A4
:102B1000FFF754FE2B68274AC3F804232C68B9F149
:102B2000070F4FEA143A44F3073403D922496B20C4
:102B3000FEF7E8F9002CAEBF04F160421F4B0AF02B
:102B40000F0A4FEA4919A8BF02F561425FFA89F9F5
:102B5000B4BF03F80A9082F800932B681A0B43F372
:102B60000733002B07DB02F01F0101228A405B09BB
:102B7000134941F823202B680422C3F800252C2395
:102B800003FB06830022C3E9062283F829205A6149
:102B9000012283F82A20384602B0BDE8F0870827D2
:102BA000F9E71127F7E700BF0FBB00001C12002058
:102BB000A5280000800002005BBB000014ED00E0CF
:102BC00000E100E02DE9F843036805792A4E002270
:102BD000C3F800252C2303FB056304465B68B3B1EF
:102BE0000368264AC3F8082303681A0B43F3073324
:102BF000002B0CDB02F01F015B0901228A4020330D
:102C00001F4941F82320BFF34F8FBFF36F8F236815
:102C10004FF0FF32D3F80C05D3F81495D3F80875AC
:102C2000D3F81085C3F81425C3F80C252368904207
:102C3000C3F80825C3F8102501D0FFF7EFFDB9F15F
:102C4000FF3F02D04846FFF7E9FDB8F1FF3F02D051
:102C50004046FFF7E3FD7B1C02D03846FFF7DEFD60
:102C60002068FFF78DFB2C2303FB0565002385F807
:102C70002A306B60BDE8F8831C1200208402020039
:102C800000E100E02DE9F84F344E077991462C22FF
:102C900002FB0762054692F82A20012A884604D0E2
:102CA0002F494FF48C70FEF72DF9B8F1000F04D1C5
:102CB0002B4940F21910FEF725F9B9F1000F04D1A4
:102CC00027494FF48D70FEF71DF92B792C2404FB56
:102CD0000363D3F814B0BBF1000F3CD107FB046AC7
:102CE0004FF48E71CAF81490CAF80880CAF820B060
:102CF0008AF828B02868FFF761FD2B6801229A60E6
:102D000028685146FFF762FDDAF8043054468BB963
:102D10002868DAF81480236A984511D82B68D3F80C
:102D20001C21002AFBD00122DA602C2303FB07635D
:102D300000225A615846BDE8F88F94F828303BB914
:102D4000D0F81C31002BF8D05146FFF73FFDE2E7E9
:102D50004FF00F0BE9E74FF0110BEBE71C120020CF
:102D60000FBB00002DE9F843484F05792C2303FBE6
:102D70000573064693F82A30012B8846144604D082
:102D800043494FF4B670FEF7BDF8B8F1000F04D117
:102D90003F4940F26D10FEF7B5F824B93C494FF4B5
:102DA000B770FEF7AFF82C2303FB05735A6822B106
:102DB00033684FF40171C3F808132C2303FB057328
:102DC000986950B1D96900293FD022B133684FF4D6
:102DD0000172C3F80423112434E09C61C3F80C8011
:102DE0005862D8612C2303FB057393F829301BB973
:102DF00010B93046FFF720FD4FF02C0909FB05788C
:102E00003068D8F80430002B35D14FF4A271C14698
:102E1000FFF7D4FC3068D0F82431D0F80821D0F87E
:102E20004441BAB90CB9002BF4D02C2202FB057531
:102E30000022AA612BBB34BB95F82910336801220C
:102E4000B9B11A602046BDE8F883C3F81080DC6190
:102E50000120C7E7002BE8D1002CE6D14946FFF757
:102E6000FBFCD8F82430D8F818209A42D2D8234650
:102E7000DBE75A60E6E74FF40173C0F8043300243F
:102E8000E0E70324DEE70F24DCE700BF1C1200208C
:102E90000FBB00000023435082B043580193019BB5
:102EA00002B0704710B50368292B044604D90749BE
:102EB00040F2CD10FEF726F823681F2B83BF03F0E6
:102EC0001F03034823604FF0A04010BDD6A90000A7
:102ED0000003005007B5019001A8FFF7E3FF019B35
:102EE00003F5E073022240F8232003B05DF804FBF1
:102EF0001FB501238DF80030044BCDE90110D3E953
:102F000000126846904705B05DF804FB48120020A7
:102F10007FB5434AD2F82461002E60D010464FF4AA
:102F20009271FFF7B7FF02238DF80030D2F880349A
:102F3000C2F880340393D2F83C350293394BDA68F7
:102F400001920022C3E906226846D3E900129047A5
:102F50003348D0F8443173B14FF4A271FFF79AFFB0
:102F6000304B9A693AB10022C3E90622D968D0F8F9
:102F70003C05FFF7BDFF2A48D0F82031ABB14FF434
:102F80009071FFF787FF0123C360264B5A6962B136
:102F9000D0F84C150291002299688DF8002001911B
:102FA0005A616846D3E9001290471D48D0F858315D
:102FB0009BB14FF4AC71FFF76DFF1A4B5A6962B1C8
:102FC000D0F84C150291002299688DF800200191EB
:102FD0005A616846D3E90012904704B070BDD2F838
:102FE0001031002BB4D04FF488711046FFF752FF18
:102FF0000C4BD2F83C0599698842A9D1DC69D968A3
:1030000064B1D2F8005225F02005C2F800521A69C6
:103010009C61DA60DE61FFF76BFF99E79C61FAE77C
:1030200000200040481200202DE9F3470546914654
:103030000C4619B97349CF20FDF764FF724B2E7906
:10304000242202FB0632984692F82020002A40F003
:10305000D5806E492868FFF771F90746002840F0CF
:10306000CF8023685A1C13D001A80193FFF71AFFE1
:10307000019A01239340C0F808352368019301A801
:10308000FFF710FF019B03F5E073032240F82320B4
:103090006368581C09D001A80193FFF703FF019B47
:1030A00003F5E073002240F823202B68A269C3F8DF
:1030B0002425217D637D2A680B43C2F86C35D4E951
:1030C00000122B68C3F80C15C3F81425237D012BBF
:1030D0002AD1A368591C09D001A80193FFF7E2FE89
:1030E000019B03F5E073002240F82320E3685A1C9B
:1030F00013D001A80193FFF7D5FE019A0123934055
:10310000C0F80835E368019301A8FFF7CBFE019BE7
:1031100003F5E073032240F82320D4E902212B6851
:10312000C3F80815C3F810252423734308EB0302E2
:10313000C2F80490226948F80320B9F1000F4BD07F
:10314000286894F81C904FF48871FFF7A3FE286854
:103150004FF49071FFF79EFE28684FF49271FFF7CD
:1031600099FE28684FF4A271FFF794FE28684FF487
:10317000AC71FFF78FFE2B68254AC3F804232C6837
:10318000B9F1070F4FEA143A44F3073403D9214940
:103190006B20FDF7B7FE002CAEBF04F160431E4B61
:1031A0000AF00F0A4FEA4919A8BF03F561435FFA15
:1031B00089F9B4BF03F80A9083F800932B681A0BBF
:1031C00043F30733002B07DB02F01F0101228A4083
:1031D0005B09124941F823202B680822C3F8002517
:1031E000242303FB06830022C3E906225A6101223D
:1031F00083F82020384602B0BDE8F0870827F9E7B9
:103200001127F7E7A4BB000048120020112F00008F
:10321000100342005BBB000014ED00E000E100E0A1
:103220002DE9F843364E0579242303FB0563044654
:103230005B68B3B10368334AC3F8082303681A0B09
:1032400043F30733002B0CDB02F01F015B09012263
:103250008A4020332C4941F82320BFF34F8FBFF31E
:103260006F8F2268D2F8003223F02003C2F80032B8
:10327000236801225A6020684FF4AC71FFF70AFE00
:103280002368DA602368D3F85821002AFBD0002293
:10329000C3F8002523684FF0FF32D3F80C05D3F8AC
:1032A0001495D3F80875D3F81085C3F80C25C3F826
:1032B000142523689042C3F80825C3F8102501D0CF
:1032C000FFF708FEB9F1FF3F02D04846FFF702FEC4
:1032D000B8F1FF3F02D04046FFF7FCFD7B1C02D057
:1032E0003846FFF7F7FD2068FFF74AF8242303FB71
:1032F0000565002385F820306B60BDE8F88300BFCA
:10330000481200201003420000E100E02DE9F047E0
:10331000394F90F80480242303FB0873044693F884
:103320002030012B8946924604D0344940F22D10BA
:10333000FDF7E8FDB9F1000F04D130494FF4977063
:10334000FDF7E0FDBAF1000F04D12C4940F22F1037
:10335000FDF7D8FD237913B9BAF5803F04D3274987
:103360004FF49870FDF7CEFD09F06043B3F1005FB4
:103370003DD12379242606FB03735D69002D38D1E6
:1033800006FB08764FF49071C6F814A0C6F80890B2
:103390002068FFF77FFD4FF4AC712068FFF77AFDDE
:1033A00023687269B168C3F84415C3F848252368D7
:1033B00001229A607368BBB92368D3F82021D3F83F
:1033C00058511AB9002DF8D00F2508E0002DFBD177
:1033D0000122DA602268D2F85831002BFBD0242376
:1033E00003FB087700237B612846BDE8F0871025A2
:1033F000FAE71125F8E700BF48120020A4BB00003F
:103400002DE9F041484E0579242303FB056304466A
:1034100093F82030012B8846174604D043494FF4D7
:10342000C070FDF76FFDB8F1000F04D13F4940F2C5
:103430008110FDF767FD27B93C494FF4C170FDF7D6
:1034400061FD237913B9B7F5803F04D3374940F2C2
:103450008310FDF757FD08F06043B3F1005F61D1C1
:10346000242303FB0563596821B123684FF40472D8
:10347000C3F80823242303FB05639A6952B1DA6970
:10348000002A3DD021B123684FF40472C3F804230D
:10349000112033E09F61C3F80C80DA6120684FF49B
:1034A0008871FFF7F7FC20684FF4A271FFF7F2FC78
:1034B0002368C3F83485C3F8387523682ABB012212
:1034C0001A6021792368242202FB016252681ABB28
:1034D000D3F81041D3F84421D3F82401144302D186
:1034E0000028F5D02246242303FB016600239842DE
:1034F00018BF03209A42B36118BF0F20BDE8F081C6
:10350000C3F81080DF610122C8E7D3F8002242F03F
:103510002002C3F80022D4E74FF40472C3F8042356
:103520000020EBE71020E9E748120020A4BB0000D0
:103530000023435082B043580193019B02B070476F
:1035400010B52148D0F810315BB14FF48871FFF706
:10355000EFFF1E4B5A79510703D51B680BB10120B1
:1035600098471948D0F814315BB14FF48A71FFF7CE
:10357000DFFF164B5A79120703D51B680BB10220E7
:1035800098471148D0F81C315BB14FF48E71FFF7AA
:10359000CFFF0E4B587910F0100002D11B6803B119
:1035A00098470948D0F8043163B14FF48271FFF7AE
:1035B000BFFF064B01221A711B681BB1BDE810400A
:1035C0000320184710BD00BF00C001406C1200204E
:1035D000054B1B680D2B01BF044B1868B0FA80F037
:1035E000400918BF0020704730010010340100105E
:1035F00008B5FFF7EDFF40B14FF080430022C3F85C
:103600000C21C3F81021C3F83825FFF7E1FF00288B
:1036100046D04FF080524D4BD2F80414C3F8201519
:10362000D2F80814C3F82415D2F80C14C3F82815DE
:10363000D2F81014C3F82C15D2F81414C3F83015AE
:10364000D2F81814C3F83415D2F81C14C3F8401576
:10365000D2F82014C3F84415D2F82414C3F848153E
:10366000D2F82814C3F84C15D2F82C14C3F850150E
:10367000D2F83014C3F85415D2F83414C3F86015D6
:10368000D2F83814C3F86415D2F83C14C3F868159E
:10369000D2F84014C3F86C15D2F84424C3F870254E
:1036A000FFF796FF48B14FF08043D3F80024D207CC
:1036B00044BF6FF00102C3F80024254AD2F88830D5
:1036C00043F47003C2F88830BFF34F8FBFF36F8F9E
:1036D0004FF01023D3F80022002A03DBD3F8043282
:1036E000002B2FDA1B4B0122C3F80425D3F800244A
:1036F000002AFBD04FF010221221C2F80012D3F89A
:103700000024002AFBD04FF010231222C3F8042219
:10371000104B1A46D3F800140029FBD00021C3F83F
:103720000415D2F80034002BFBD0BFF34F8F0849AB
:10373000094BCA6802F4E0621343CB60BFF34F8FBA
:1037400000BFFDE7054B064A1A6008BD00C00040F7
:1037500000ED00E000E001400400FA051C0000203C
:103760000090D0030649074A074B9B1A03DD043B30
:10377000C858D050FBDCFFF73BFFFCF765FD0000AD
:103780008CC0000000000020E0090020FEE7FEE7FA
:10379000FEE7FEE7FEE7FEE7FEE7FEE7FEE7FEE701
:1037A00008B50021044602F01FFC044B1868C36BE7
:1037B00003B19847204606F0B9FA00BF00BD0000EB
:1037C00070B50D4E0D4D761BB61006D0002455F881
:1037D000043B01349847A642F9D1094E094D761BA6
:1037E00007F0B6F8B61006D0002455F8043B0134B3
:1037F0009847A642F9D170BDD0090020D009002019
:10380000DC090020D0090020024B0146186800F0B6
:103810000BB800BF20000020024B0146186803F0DF
:1038200011BE00BF200000202DE9F04F01F10B0573
:10383000162D83B0064624D8102900F2B78000F078
:1038400097FB102502211823DFF8F0844344A3F1ED
:1038500008025C68944200F0B580636823F00303BB
:103860002344D4E902515A68E96042F0010230462B
:103870008D605A6000F082FB0834204603B0BDE83A
:10388000F08F35F0070500F19180A94200F28E809B
:1038900000F06EFBB5F5FC7FC0F090816B0A00F084
:1038A0008C80042B00F26681AB0903F1390103F12E
:1038B0003807CB00DFF884844344A3F108005C6838
:1038C000A04206D10CE0002A80F22281E468A042E6
:1038D00006D0636823F003035A1B0F2AF3DD394631
:1038E000D8F81040DFF858C4644577D0626822F0F9
:1038F0000302531B0F2B00F36F81002BC8E904CC8C
:1039000080F26081B2F5007F80F01081D30801332E
:10391000500901228240D8F8040058F83370A7609B
:1039200008EBC30E0243AEF10800E060C8F80420C3
:1039300048F83340FC608B1001209840904254D8E6
:10394000104206D121F003014000104201F10401B0
:10395000FAD008EBC1094C468E46E768BC4207D155
:1039600014E1002B80F21B81FF68BC4200F00E8145
:103970007A6822F00302531B0F2BF2DDD7E902E431
:10398000791945F001057D6043F00105CEF80C4042
:103990003046C4F808E0C8E90411C1E902CC4D6022
:1039A000BB5000F0EBFA07F1080402E00C2333608F
:1039B0000024204603B0BDE8F08F4FF4007340218F
:1039C0003F2777E7DC68A34208BF02317FF445AFA9
:1039D000D8F81040DFF868C3644587D1D8F80420D0
:1039E0008B10012098409042AAD9D8F80840676807
:1039F00027F00307BD4202D87B1B0F2B77DCDFF8D3
:103A00004493CA4BD9F800201B6801322B4404EBC5
:103A1000070A00F02E8103F580530F3323F47F6BE8
:103A20002BF00F0B5946304600F0C2FA411C0246FB
:103A300000F0EB80824500F2E680BD4B19685944E6
:103A40001960084600F04B81D9F80010019301314C
:103A50001BBFA2EB0A0A5044C9F80020186012F0FC
:103A6000070A00F01481CAF108010A44CAF580511E
:103A700093440831A1EB0B01C1F30B0949463046D1
:103A8000009200F095FA421CDDE9002300F05C8111
:103A9000801A00EB090B1968C8F808204BF00100E8
:103AA000494444455060196000F026810F2F40F2D0
:103AB000258160680C3F27F0070700F0010004EB48
:103AC000070C38434FF0050E0F2F6060CCE901EE74
:103AD00000F2428150681446964B1A688A4238BFF9
:103AE0001960954B1A688A4238BF196090E06219D4
:103AF00043F0010345F0010565603046C8F8082031
:103B0000536000F03BFA0834204603B0BDE8F08F64
:103B10002344E1685A68A56842F00102E960304632
:103B20008D605A6000F02AFA083442E7B2F5206F3F
:103B30004FEA522361D3142B00F2BA8003F15C00E8
:103B4000C0005B3308EB000758F80000083F8742CD
:103B500000F09280436823F00303934202D9806807
:103B60008742F7D1C768D8F80420C4E90207BC60CF
:103B7000C460E0E6142B59D9542B00F2A1802B0B22
:103B800003F16F0103F16E07CB0093E60EF1010E16
:103B90001EF0030F04F108047FF4DFAE51E03A4455
:103BA0003C465368F96854F8085F43F001035360DA
:103BB0003046E9608D6000F0E1F9FAE6E90805F1C8
:103BC000080341E622443046536843F00103536042
:103BD000083400F0D3F9ECE6611943F0010745F031
:103BE000010565603046C8E90411C1E902CC4F60A7
:103BF000A35000F0C3F90834DBE6930903F1390060
:103C0000C00038339EE7444564D0D8F80840606867
:103C100020F0030B5D45ABEB050302D80F2B3FF7FC
:103C200066AF304600F0AAF90024C2E603F15C0159
:103C300003F15B07CB003DE659F808394B4540F0EE
:103C4000AA8011F0030F01F1FF31F5D1D8F804304B
:103C500023EA0003C8F80430400098423FF6C5AE9E
:103C600018B9C2E640000EF1040E1842FAD07146AF
:103C70006FE603F1100BD5E69A104FF0010ED8F85D
:103C800004300EFA02F21A43C8F804206DE702EB82
:103C90000B014942C1F30B0949463046009200F03E
:103CA00087F9431CDDE900237FF4F2AED146F2E64A
:103CB000542B26D8130B03F16F00C0006E3341E77D
:103CC000B3F5AA7F26D8EB0B03F1780103F1770750
:103CD000CB00EFE5164B186858441860B4E6CAF3F9
:103CE0000B0CBCF1000F7FF4AFAED8F80840BB441A
:103CF0004BF001006060EFE61446EDE601235360EF
:103D00008FE7B3F5AA7F33D8D30B03F17800C00057
:103D1000773317E740F25452934233D8AB0C03F198
:103D20007D0103F17C07CB00C4E500BFA412002095
:103D3000741200209C120020A012002050040020C9
:103D40005804002058080020AAF1080AD344ABEB1D
:103D5000020B4FF000099EE604F108013046009383
:103D600003F070FBD8F80840009B60681968B3E660
:103D700040F2545083420AD8930C03F17D00C000F6
:103D80007C33DFE64FF47E737F217E2792E54FF48C
:103D90007E707E23D6E6D8F804305DE7844641EA9B
:103DA000000313F003036DD1403A41D351F8043BB3
:103DB00040F8043B51F8043B40F8043B51F8043B05
:103DC00040F8043B51F8043B40F8043B51F8043BF5
:103DD00040F8043B51F8043B40F8043B51F8043BE5
:103DE00040F8043B51F8043B40F8043B51F8043BD5
:103DF00040F8043B51F8043B40F8043B51F8043BC5
:103E000040F8043B51F8043B40F8043B51F8043BB4
:103E100040F8043B51F8043B40F8043B51F8043BA4
:103E200040F8043B51F8043B40F8043B403ABDD213
:103E3000303211D351F8043B40F8043B51F8043BB5
:103E400040F8043B51F8043B40F8043B51F8043B74
:103E500040F8043B103AEDD20C3205D351F8043B44
:103E600040F8043B043AF9D2043208D0D2071CBF10
:103E700011F8013B00F8013B01D30B880380604639
:103E8000704700BF082A13D38B078DD010F00303AF
:103E90008AD0C3F10403D21ADB071CBF11F8013B1F
:103EA00000F8013B80D331F8023B20F8023B7BE76E
:103EB000043AD9D3013A11F8013B00F8013BF9D299
:103EC0000B7803704B7843708B7883706046704733
:103ED000F0B4860746D0541E002A3CD0CAB203462E
:103EE00001E0013C37D303F8012B9D07F9D1032CE6
:103EF0002AD9CDB245EA05250F2C45EA054534D926
:103F0000A4F1100222F00F0C03F1200716096744F8
:103F100003F1100242E9045542E902551032BA4257
:103F2000F8D1721C14F00C0F03EB021204F00F0610
:103F300013D0331F23F003030433134442F8045B0C
:103F40009342FBD106F003042CB1CAB21C4403F81F
:103F5000012B9C42FBD1F0BC704734461346002C29
:103F6000F3D1F8E714460346C1E71A462646E0E7D0
:103F7000014803F097BB00BFC0120020014803F0C6
:103F800093BB00BFC01200200FB400B5074983B037
:103F900004AB086853F8042B8168019300F080F9A2
:103FA00003B05DF804EB04B0704700BF20000020B0
:103FB00038B5074D0022044608462A6005F0A8FEE1
:103FC000431C00D038BD2B68002BFBD0236038BDCC
:103FD000D412002000290CBF022200224FF480637B
:103FE00000F000B82DE9F043654CD4F8009083B0A0
:103FF00004460F4690461E46B9F1000F03D0D9F88B
:104000003830002B79D0B8F1020F06D0B8F1010F8B
:1040100000F2A480002EC0F2A180636ED90752D5B1
:104020002146484603F016F9216B41B104F14003E3
:10403000994202D0484603F005FA00232363B4F9FD
:104040000C500023A36163602B0665D425F44A65F8
:1040500025F00305B8F1020FA58164D001AB6A46D3
:104060002146484603F022FBA3891843A081002E75
:1040700030D0002F2FD0D9F83830002B39D0009B0A
:104080002760B342B4F90C301CBF43F40063A38132
:10409000B8F1010F04BF43F00103A3819AB213F0FA
:1040A0000803C4E904762CD0D10755D57642A66121
:1040B000666E002116F00106A16027D0002630466A
:1040C00003B0BDE8F083A3899A05A9D4A06D03F0DD
:1040D000E9FAA5E7009E3046FFF796FB0746002861
:1040E0003FD0A38943F08003A381D9F83830002B57
:1040F000C5D1484603F00AF9C1E7484603F006F97E
:1041000081E7A360666E16F00106D7D193051CD532
:10411000304603B0BDE8F0832169484603F092F9C8
:10412000B4F90C5092E70026626E002104F14303BB
:1041300045F00205A160D7074FF00101C4E9043141
:10414000A5812360E4D4A805E2D4A06D03F0ACFA05
:10415000304603B0BDE8F083A660D3E74FF0FF36EA
:10416000D6E7009DB54204D02846FFF74DFB074631
:1041700020B9B4F90C504FF0FF36D5E72E46B0E722
:1041800020000020000000000000000000000000EF
:10419000000000000000000000000000000000001F
:1041A000000000000000000000000000000000000F
:1041B00000000000000000000000000000000000FF
:1041C00090F800F06DE9024520F007016FF0000C57
:1041D00010F0070491F820F040F049804FF00004FF
:1041E0006FF00700D1E9002391F840F000F10800DA
:1041F00082FA4CF2A4FA8CF283FA4CF3A2FA8CF312
:104200004BBBD1E9022382FA4CF200F10800A4FA78
:104210008CF283FA4CF3A2FA8CF3E3B9D1E90423CC
:1042200082FA4CF200F10800A4FA8CF283FA4CF303
:10423000A2FA8CF37BB9D1E9062301F1200182FABD
:104240004CF200F10800A4FA8CF283FA4CF3A2FAC3
:104250008CF3002BC6D0002A04BF04301A4612BAD1
:10426000B2FA82F2FDE8024500EBD2007047D1E9D4
:10427000002304F00305C4F100004FEAC50514F063
:10428000040F91F840F00CFA05F562EA05021CBF34
:1042900063EA050362464FF00004A9E7000000004E
:1042A0002DE9F04F2DED068BCFB01C468B461746FF
:1042B000814603F0EFF90368089418461193FFF75D
:1042C0007FFF1090B9F1000F04D0D9F83830002BDF
:1042D00000F00A82DBF86430BBF90C2013F0010F08
:1042E00093B202D1910540F1D5869E040AD4DBF841
:1042F000641042F4005321F40051ABF80C30CBF8B9
:1043000064109BB21D0740F1CA80DBF81020002A20
:1043100000F0C58003F01A020A2A00F0CE800023C4
:104320009FED837BCDE92333CDE91333CDE91533FD
:104330000C931293049325AB229398463B788DED12
:104340000E7B09EE10BA002B00F078813C4604E0A9
:1043500014F8013F002B00F0C980252BF8D1E51B94
:1043600040F0C7802378002B00F06881002305937C
:104370008DF86B300293661C4FF0FF336478039323
:104380002B254FF0200A0136A4F120035A2B00F20E
:10439000D380DFE813F07802D100D1007202D1009F
:1043A000D100D1006A00D100D10010022102D10059
:1043B0001B025802D10052025B005B005B005B00F5
:1043C0005B005B005B005B005B00D100D100D100B3
:1043D000D100D100D100D1005D01D100B301900224
:1043E0005D015D015D01D100D100D100D1008A02E3
:1043F000D100D100E902D100D100D100C101D1002A
:104400002502D100D1002108D100D100D100D10076
:10441000D100D100D100D1005D01D100B301E7018D
:104420005D015D015D01FE02E701AD01D100810288
:10443000D1001B0317080703AD01D100C1018200A1
:104440001308D100D100F207D1008200A4F130039B
:10445000002216F8014B02EB820203EB4202A4F1A8
:104460003003092BF5D905928EE7484603F012F97F
:10447000436815931846FFF7A3FE034648461C46BB
:10448000169303F007F98268139234B1139B23B19A
:10449000139B1B78002B41F0D980347873E7594681
:1044A000484601F02FFD002841F07483BBF80C3022
:1044B00003F01A020A2A7FF432AFBBF90E20002A59
:1044C000FFF62DAFDBF86420D20702D49E0541F140
:1044D000918123463A465946484601F0D1FC049062
:1044E00004984FB0BDEC068BBDE8F08FE51B00F0E3
:1044F000A580DDE9233201332A44072BCDE923329D
:10450000C8F80070C8F8045006DC08F10808049ADE
:1045100023782A44049226E719EE101A22AA484664
:1045200003F000FE002841F04D840DF19408EEE701
:1045300000000000000000000996002C7ED000233F
:104540001A464FF0010A8DF8D4408DF86B3007926F
:1045500003920A920D920B92CDF818A035AF029BF0
:10456000029913F0020318BF0AF1020A11F0840B3A
:1045700005D10599A1EB0A06002E00F3D483249DF2
:1045800072B1239A013201350DF16B000121072A26
:10459000CDE92325C8E9000100F3058408F10808E6
:1045A0006BB1239B013302351BA90222072BCDE9F6
:1045B0002335C8E9001200F3068408F10808BBF1AE
:1045C000800F00F09682039B069A9E1A002E00F33D
:1045D000D882029BDE0500F13082239B069AC8F840
:1045E000007001331544072B2495C8F80420239349
:1045F00000F32D8308F10808029B5C0705D5059B95
:10460000A3EB0A04002C00F3EC83DDE904325245ED
:10461000ACBF9B1853440493002D40F0EF8200235D
:104620002393079B1BB10799484602F00BFF0DF13E
:104630009408099F3B78002B7FF488AE249B19EEE9
:1046400010BA002B40F0F8870023239300F08FBCB2
:10465000089B0996073323F00703B3EC027B8DED2B
:104660000E7BDDE90E56089326F000430AEE903AE1
:104670000AEE105A5BEC1AABB84B504659464FF055
:10468000FF3205F0ABFF002840F05285B34B4FF0EE
:10469000FF325046594605F083FF002840F0488518
:1046A000002200232846314605F070FF002841F023
:1046B0009A819DF86B20AA4FAA4B029800214FF0D7
:1046C000030A20F0800007910290472CC8BF1F46C4
:1046D000CDF818A003910A910D910B91002A3FF497
:1046E0003EAF0AF1010A3AE7484602F00FFEF1E553
:1046F000029B347843F02003029344E6089B09961A
:1047000053F8042B8DF8D42000210A464FF0010AFB
:1047100008938DF86B101AE7089D099655F8047BED
:1047200000268DF86B60002F00F08486039A1346F4
:10473000013300F02E873146384603F031F80790F8
:10474000002801F0E281079B0396DA1B06923346AC
:1047500022EAE27A08959DF86B2007930A930D935D
:104760000B93BBE7029B09969D0640F1AD80089B29
:10477000073323F007031946F1E802230891924614
:104780009B46002A73F10003C0F2AF80039B013304
:1047900000F0AD85029B23F080055AEA0B0340F040
:1047A000B182039B002B40F0B48202950023039357
:1047B00006934EAFC3E0089B53F8042B0592002AE2
:1047C00080F27184059A089352420592029B3478D4
:1047D00043F004030293D6E534788DF86B50D2E5AC
:1047E000029B099643F01005AF0640F12984089B0F
:1047F000073323F00703F3E802AB089301230022F9
:104800008DF86B20039A114601317DD025F080018F
:1048100002915AEA0B0140F07182002A40F086862C
:10482000002BC3D115F00103069300F06B843023F5
:104830008DF837310DF2371781E0029B347843F061
:10484000800302939FE5324612F8014B2A2C01F0B7
:10485000F182A4F13003092B164698BF002201F221
:10486000928116F8014B02EB820203EB4202A4F1A3
:104870003003092BF5D9039286E5029B347843F087
:10488000010302937FE59DF86B30002B7FF405AEAA
:1048900034788DF86BA076E53478029B6C2C00F0B0
:1048A000C28543F0100302936DE5029B347843F018
:1048B0000803029367E5029B099643F010030293F5
:1048C000029B9D063FF553AF029BD80640F1F6844C
:1048D000089B53F8042B08934FEAE27B5B46002ABF
:1048E00073F100039246BFF651AF039A029DDAF1CD
:1048F000000A11464FF02D036BEB4B0B01318DF885
:104900006B304FF0010381D1012B00F0FB81022BB2
:104910004EAF73D112984FEA1A130AF00F0143EA0F
:104920000B734FEA1B129A469346435C07F8013D0E
:104930005AEA0B03EFD14EABDB1B02950693002323
:10494000039907930A930D930B93069B9DF86B2095
:104950008B42B8BF0B469A46C0E600BFFFFFEF7F11
:1049600004BD000008BD0000029B099643F010033F
:104970000293029B990640F17783089B073323F04B
:104980000703F3E802AB0893029B23F4806500233E
:1049900035E73478029B682C00F03E8543F04003F5
:1049A0000293F0E4089B099647F6300153F8042B74
:1049B000ADF86C1002990893CD4B129341F00205AB
:1049C00092464FF0000B0223782418E7029B0996C9
:1049D0009E0600F1A183029BDD0600F1AD85029BDE
:1049E0005C0600F14986029B980540F1A585089B6D
:1049F000049953F8042B089311701AE64FEADA026F
:104A000042EA4B724FEADB010AF007038B469246FB
:104A100030335AEA0B013A4607F8013DEED1E90777
:104A200089D5302B87D03023023A07F8013C4EABB2
:104A30009B1A02950693174681E7652C40F3138174
:104A4000DDE90E010022002305F096FD002800F0AC
:104A50000482239BA74AC8F80020013301350122B4
:104A6000072BCDE92335C8F8042000F3418508F170
:104A700008081C9B0C9A934280F20783239B119A8F
:104A8000C8F80020109AC8F8042001331544072BF9
:104A90002495239300F3B28408F108080C9B5C1E54
:104AA000002C7FF7A9AD102C239BDFF84CB240F30C
:104AB00030855F46102619EE10BA05E008F10808A7
:104AC000103C102C40F3248501331035072BCDE921
:104AD0002335C8E90076F1DD22AA5946484603F09D
:104AE00021FB002840F03E82DDE923350DF19408DA
:104AF000E6E7059BA3EB0A06002E7FF764AD102EB8
:104B0000239ADFF8F4B129DD58462946A34619EE69
:104B1000105A1023044604E0103E102E08F1080835
:104B200018DD01321031072ACDE92321C8E90043FD
:104B3000F2DD22AA2946484603F0F4FA002840F0A4
:104B40001082103E102EDDE923210DF194084FF064
:104B50001003E6DC23460D465C469B460132354495
:104B6000072ACDE92325C8F800B0C8F8046000F38F
:104B70003784039B069A9E1A002E08F108087FF7D7
:104B800028AD102E239ADFF870B129DD584629464A
:104B9000A34619EE105A1023044604E0103E102ECE
:104BA00008F1080818DD01321031072ACDE9232168
:104BB000C8E90043F2DD22AA2946484603F0B2FACA
:104BC000002840F0CE81103E102EDDE923210DF1AA
:104BD00094084FF01003E6DC23460D465C469B46E6
:104BE00001323544072ACDE92325C8F800B0C8F8BA
:104BF000046000F3178208F10808EAE419EE101ABD
:104C000022AA484603F08EFA00283FF408AD19EEB8
:104C100010BAA7E1239B1199C8F800101099C8F8A1
:104C2000041001330D44072B2495239300F3D28500
:104C300008F10808002AC0F2C7870C9A013315440E
:104C4000072BCDE92335C8E900727FF7D3AC19EE05
:104C5000101A22AA484603F065FA0028D7D1249DED
:104C60000DF19408C8E40C9B239C012B40F3928126
:104C7000013401350123072CCDE92345C8F8007024
:104C8000C8F8043000F3F18308F10808109B119A6A
:104C900001341D44072CCDE92345C8E9002300F366
:104CA000F28308F108080023DDE90E01002205F077
:104CB00063FC0C9B002840F08B81013B01340137E1
:104CC0001D44072CCDE92345C8F80070C8F804300E
:104CD00000F3708108F10808149A013415441EABE2
:104CE000072CCDE92345C8E900327FF783ACAEE756
:104CF00014BD000044BD000058BD0000012B029D02
:104D00007FF405AEBBF1000F08BFBAF10A0F80F0C7
:104D1000F6820AF1300A01238DF837A10295069335
:104D20000DF237170BE6102EDDE9232129DD17934D
:104D3000102543460846B846274619EE104A04E0B7
:104D4000103E102E03F1080316DD0132C449103065
:104D5000072ACDE92320C3E90015F1DD22AA214667
:104D6000484603F0DFF9002840F0B483103E102ECF
:104D7000DDE9232025ABE8DC3C4647469846179BF7
:104D800001460132B648C8F800007518072ACDE977
:104D90002325C8F8046000F38B839DF86B2008F18D
:104DA0000808FFF7EDBB19EE101A22AA4846179320
:104DB00003F0B8F900287FF42AAF249D179B0DF16A
:104DC0009408FFF7EDBB19EE101A22AA484603F02B
:104DD000A9F900287FF41BAF249D0DF19408FFF77B
:104DE000EEBB102C239B20DD19EE107A102604E078
:104DF000103C102C08F1080817DD0133984A1035D3
:104E0000072BCDE92335C8E90026F1DD22AA394672
:104E1000484603F087F9002840F07883103C102CB6
:104E2000DDE923350DF19408E7DC01338C4AC8F83D
:104E300000202544072BCDE92335C8F804407FF72F
:104E4000E4AB19EE101A22AA484603F06BF90028C9
:104E50007FF4DDAE249DFFF7D8BB1C9A002A40F3F7
:104E60002681DDE90B329342A8BF1346002B1C4676
:104E70000DDD239BC8F8007001332544072B2495D2
:104E8000C8F80440239300F3D98508F108080B9B68
:104E9000002CA8BF1B1B002B1C4600F355830B9B4B
:104EA0003B449B46029B590500F104851C9B0C9AD0
:104EB000934203DB029AD20740F1CF83239A1199E0
:104EC000C8F800101099C8F8041001320D44072AE0
:104ED0002495239200F3E98508F108080C9ABC1880
:104EE000A4EB0B04D31A9C42A8BF1C46002C0DDD7A
:104EF000239AC8F800B001322544072A2495C8F83F
:104F00000440239200F32E8608F10808002CACBF61
:104F10001C1B1C46002C7FF76FAB102C239BDFF86B
:104F200044B140F3F6825F46102619EE10BA05E050
:104F300008F10808103C102C40F3EA8201331035C8
:104F4000072BCDE92335C8E90076F1DD22AA5946C1
:104F5000484603F0E7F828B9DDE923350DF1940858
:104F6000E8E7AB46079911B1484602F06BFADBF867
:104F7000643013F0010FBBF80C3002D1980540F1FA
:104F80009082590600F1128604984FB0BDEC068B52
:104F9000BDE8F08F029BDE073FF56AAE01340135B4
:104FA0000123072CCDE92345C8F80070C8F8043068
:104FB0007FF790AE19EE101A22AA484603F0B2F815
:104FC00000287FF424AEDDE923450DF1940883E643
:104FD0005E1E002E7FF780AE102EDFF888B040F303
:104FE000E382CDF80CA0102719EE10AA05E008F115
:104FF0000808103E102E40F3D58201341035072CDE
:10500000CDE92345C8E900B7F1DD22AA514648465B
:1050100003F088F8002840F0BA85DDE923450DF15A
:105020009408E6E719EE101A22AA484603F07AF827
:1050300000287FF4ECAD249D0DF19408FFF7C9BA68
:10504000089AEE0652F8041B08924FF001035ED452
:10505000680659D51FFA81FA4FF0000BFFF7CFBB56
:1050600048BD000058BD0000029BDA0600F1368101
:10507000029B5B0640F1B082089B53F8042B089317
:105080001FFA82FA4FF0000B7EE4029BD8077FF5EF
:10509000B3AAF3E4DBF8580002F004FBBBF90C20E0
:1050A00093B2FFF722B934780893FFF76CB9239BCA
:1050B000C649C8F80010013301350121072BCDE99D
:1050C0002335C8F8041000F39B8408F10808002A6F
:1050D0007FF4A0AD029B0C9A03F0010313433FF44D
:1050E0008BAA239B119AC8F80020109AC8F80420B4
:1050F00001331544072B2495239300F36B8308F1A8
:1051000008089AE54EAF1AE4AA0500F1AF828A4674
:105110004FF0000BFFF773BB089B53F8041B089379
:10512000049BDD171A462B46C1E90023FFF781BA1D
:10513000DDE90E0102460B4605F050FA054600284F
:1051400040F03086612C00F0A485412C00F0A28252
:10515000039B24F020065A1C069600F0C085472EBB
:1051600000F09C85DDE90E01029A002942F480726C
:105170000A924FF00003C0F2E58541EC180B17933B
:105180000793462E00F0A084452E40F07184B0EEC7
:10519000480AF0EE680A039B20A95D1C1DABCDE90F
:1051A00000312A461CAB0221484601F019F8074697
:1051B00005440A9BDDF808B0029351EC180B00225D
:1051C000002305F0D9F9002800F056832B46DB1B9D
:1051D0000C93069B472B00F02183069B462B00F087
:1051E000A1841C9B0B930B9B069A013B412A1C93A9
:1051F00000F0A285E2B20021002BB8BF0B9B8DF816
:105200007820BABFC3F101032D222B22092B8DF880
:10521000792040F382850DF1870EDFF8B8C175461D
:105220008CFB0321DA17C2EBA10202EB8201A3EB94
:1052300041011E463031632E284605F8011C1346F5
:1052400005F1FF35ECDC3033DAB2831E9E4529468A
:1052500005F8012C40F2F9850DF17A0301E011F80F
:10526000012B03F8012B8E45F9D10DF189030DF1C6
:105270007A021B1A13441EAA9B1A14930C9B149AAD
:10528000012B1A44069240F3AF85069B109A1344F3
:10529000069300232BF480660A930D930B93069BD1
:1052A00046F48072029223EAE37A179B002B40F0C7
:1052B000DC829DF86B200393FFF710BA029B59061E
:1052C00040F19981089B53F8042B08930FFA82FA56
:1052D0004FEAEA7B52465B46FFF753BA089B53F806
:1052E000042B089392464FF0000BFFF74DBBBBF128
:1052F000000F08BFBAF10A0F029DFFF40AAD05F4D2
:10530000806600230295CDF81880139DA0464EAF0D
:1053100034461E4609E005F09FF9BBF1000F08BFB7
:10532000BAF10A0F1FD382468B460A220023504649
:10533000594605F091F994460CF1300C07F801CC70
:10534000504659460A2200230136013F002CE2D084
:1053500095F800C06645DED1FF2EDCD09B4508BF26
:10536000924580F095824EABDB1B44461395DDF8E9
:1053700018800C960693FFF7E2BA154B0996129324
:10538000029B9F0666D5089B073323F00703F3E8CB
:1053900002AB0893029AD0070AD55AEA0B0307D04A
:1053A000302342F002028DF86D4002928DF86C308D
:1053B000029B23F480650223FFF721BA029D099620
:1053C000FFF712BA0996FFF7D4BA00BF44BD000038
:1053D00014BD000067666666AB4B09961293CFE773
:1053E00019EE101A22AA484602F09CFE00287FF40B
:1053F0000EAC249D0DF19408FFF7E5B819EE101AD4
:1054000022AA484602F08EFE00287FF400AC249DBC
:105410000DF19408FFF742BB43F4007374780293D4
:105420000136FEF7B0BF43F02003747802930136D3
:10543000FEF7A9BF039B0A97062B28BF06230397F5
:105440000D970B9707973A469A46904F0895069303
:10545000FFF744B9029BDE063ED5089B53F8042BA8
:10546000089392464FF0000B94E719EE101A22AA07
:10547000484602F057FE00287FF4C9ABDDE923451A
:105480000DF1940802E419EE101A22AA484602F01F
:1054900049FE00287FF4BBABDDE923450DF19408FC
:1054A00001E4DBF8580002F0FFF8BBF80C3068E5C7
:1054B00019EE101A22AA4846179302F033FE00286C
:1054C0007FF4A5AB9DF86B20249D179B0DF19408EC
:1054D000FFF756B8A34645E5029B5D066ED5089BCF
:1054E00053F8042B08931FFA82FA4FF0000B51E790
:1054F00019EE101A22AA484602F014FE00287FF482
:1055000086AB249D0DF19408FFF7B3BABB4629E59D
:10551000BB4601332544072BC8F800B0CDE923353D
:10552000C8F804407FF766A8FFF791BB012B029DE6
:105530007FF4EDA9FFF7EDBB089B049953F8042B0A
:1055400011600893FFF775B8102C239BDFF840B16A
:1055500064DD2A4610265D4619EE10BA04E008F113
:105560000808103C102C57DD01331032072BCDE911
:105570002332C8E90056F2DD22AA5946484602F015
:10558000D1FD00287FF4EEACDDE923320DF1940863
:10559000E7E73846FEF714FE3346039602460690C8
:1055A000FFF7D6B8DDF80CA001343544072CCDE95F
:1055B0002345C8E900B67FF78DABFBE4029B13F4EB
:1055C000007F089B53F8042B089314BF5FFA82FAFC
:1055D00092464FF0000BDDE6029B13F4007F089B20
:1055E00053F8042B089314BF5FFA82FA92464FF0E7
:1055F000000BFFF7C9B9029B13F4007F089B53F817
:10560000042B3FF468A94FFA82FA4FEAEA7B089329
:1056100052465B46FFF7B5B8AB4615460133254405
:10562000072BCDE92335C8F800B0C8F8044000F3D3
:10563000E78008F1080832E419EE101A484622AA59
:1056400002F070FD00283EF4FFAF90E4029B347836
:1056500043F480630293FEF796BE0C9ABC18A4EB49
:105660000B04D31A9C42A8BF1C464FE45FFA81FA90
:105670004FF0000BFFF7C3B8089B049953F8042BB5
:1056800008931180FEF7D5BF28BD00003CBD000087
:1056900058BD000030238DF86C3058238DF86D30E4
:1056A000029B43F00205039B632B00F3CC82002393
:1056B000079335AFDDE90E01029A029542F481723B
:1056C00024F0200600290A920696C0F2AC8100233D
:1056D00041EC180B1793612C00F00583412C7FF4EB
:1056E00050ADB0EE480AF0EE680A1CA802F02EFC9D
:1056F00000224FF07F5351EC100B04F0D5FC002238
:10570000002382468B4604F037FF08B101231C9327
:10571000B74B0B93039B19973E4609EE909A0B9F4C
:1057200018945D1ECDF8348003E004F025FF013DA0
:1057300008BBB04B00225046594604F0B5FC8946E0
:10574000804604F061FF044604F044FC02460B4628
:105750004046494604F0F0FA17F804C0B5F1FF3F9F
:10576000B046824606F801CB8B464FF000024FF060
:105770000003A946D9D1A04BCDF830800022504675
:105780005946DDF83480199F0D944D46189C19EE4A
:10579000909A04F019FF002840F05F82964B504623
:1057A0005946002204F0E8FE18B10D9BD90700F11C
:1057B0005482002D2B4606DB01333344302206F899
:1057C000012BB342FBD1F31B0C930A9BDDF808B00D
:1057D0000293FEE419EE101A22AA484602F0A2FC37
:1057E00000287FF414AADDE923351C9A0DF19408F2
:1057F000FFF720BADBF8580001F056FFFEF769BE4C
:1058000019EE101A22AA484602F08CFC00287FF4F8
:10581000FEA9249D0DF19408FFF741BB1C9B0B933F
:10582000DA1C02DB039A934204DD023C24F02003DD
:105830000693D8E4DDE90B318B42C0F289811BF07D
:10584000010F00F0BC82109A134406931BF4806F82
:1058500003D00B9B002B00F37782069B672423EA7F
:10586000E37A00230A930D931FE52D2200238DF880
:105870006B200393FEF735BF209BAB42BFF4A7AC70
:1058800030215A1C20921970209B9D42F9D89EE429
:10589000169B1599FF1A1A46384602F0D3FB6B780F
:1058A00003B101350A22002350465946002604F070
:1058B000D3FE38E50C9BCDF818A05E46DDF834B079
:1058C0000B97FB1803934246DDF858A0139F0A9BE1
:1058D00019EE108A2846BBF1000F2ED0002B6BD199
:1058E000013F0BF1FF3B239B15991160013350449D
:1058F000072B2490C2F804A0239361DC083203999B
:105900003B788C1B9C42A8BF1C46002C0ADD239BC5
:10591000166001332044072B24905460239358DCF5
:105920003B780832002CACBF1C1B1C46002C14DC3E
:105930001E440A9BBBF1000FD0D1002B3CD1139722
:10594000DDE90B73FB189E42B346DDF818A09046C4
:10595000054628BF9B46FFF7A9BA102C23991EDDE8
:1059600010250B4604E0103C102C02F1080215DD56
:10597000013322491030072BCDE92330C2E900154D
:10598000F1DD22AA4146484602F0CCFB002846D170
:10599000103C102CDDE9233025AAE9DC1946174B11
:1059A00013604B1C2044072BCDE92330546053DC9B
:1059B0003B7808321E44BCE70A9B013B0A9392E7FE
:1059C00022AA4146484602F0ADFB40BB249825AAD6
:1059D00095E722AA4146484602F0A4FBF8B93B7875
:1059E000249825AA9EE72D228DF86B20FEF763BE32
:1059F00028BD0000000030400000E03F58BD00001E
:105A000019EE101A22AA484602F08CFB00287FF4F7
:105A1000FEA81C9A249D0DF19408FFF758BBC346BD
:105A2000FFF7A0BA0790DDE90E2303F1004308EE6B
:105A3000903A2D2308EE102A17934CE619EE101A0F
:105A400022AA484602F06EFB00287FF4E0A8249DBD
:105A50000DF19408FFF71BBA22AA4146484602F00E
:105A600061FB0028DBD13B78249825AA1E4460E71F
:105A700020AA1DABCDE90032B0EE480AF0EE680A6C
:105A8000039A1CAB0221484600F0AAFB472E0746AA
:105A900029D1029BDA0700F18E800A9A02924722EE
:105AA0009B460692209BFFF792BB19EE101A22AA82
:105AB000484602F037FB00287FF4A9A81C9B249DD0
:105AC0000DF19408FFF70ABA20AA1DABCDE9003208
:105AD000B0EE480AF0EE680A039A1CAB0321484670
